{
  "_format": "hh-sol-artifact-1",
  "contractName": "uber",
  "sourceName": "contracts/rideshare.sol",
  "abi": [
    {
      "inputs": [
        {
          "internalType": "address payable",
          "name": "_passenger",
          "type": "address"
        },
        {
          "internalType": "address payable",
          "name": "_charity",
          "type": "address"
        }
      ],
      "stateMutability": "nonpayable",
      "type": "constructor"
    },
    {
      "anonymous": false,
      "inputs": [
        {
          "indexed": true,
          "internalType": "uint256",
          "name": "id",
          "type": "uint256"
        },
        {
          "indexed": false,
          "internalType": "address",
          "name": "addr",
          "type": "address"
        },
        {
          "indexed": false,
          "internalType": "uint256",
          "name": "fare",
          "type": "uint256"
        }
      ],
      "name": "DriverAdded",
      "type": "event"
    },
    {
      "anonymous": false,
      "inputs": [
        {
          "indexed": true,
          "internalType": "uint256",
          "name": "id",
          "type": "uint256"
        },
        {
          "indexed": false,
          "internalType": "address",
          "name": "addr",
          "type": "address"
        },
        {
          "indexed": false,
          "internalType": "uint256",
          "name": "fare",
          "type": "uint256"
        }
      ],
      "name": "DriverChosen",
      "type": "event"
    },
    {
      "anonymous": false,
      "inputs": [
        {
          "indexed": true,
          "internalType": "uint256",
          "name": "Totalid",
          "type": "uint256"
        },
        {
          "indexed": false,
          "internalType": "address",
          "name": "addr",
          "type": "address"
        },
        {
          "indexed": false,
          "internalType": "bytes32",
          "name": "token",
          "type": "bytes32"
        }
      ],
      "name": "Drivertoken",
      "type": "event"
    },
    {
      "anonymous": false,
      "inputs": [
        {
          "indexed": true,
          "internalType": "address",
          "name": "passenger",
          "type": "address"
        },
        {
          "indexed": false,
          "internalType": "uint256",
          "name": "fare",
          "type": "uint256"
        }
      ],
      "name": "OfferAccepted",
      "type": "event"
    },
    {
      "anonymous": false,
      "inputs": [
        {
          "indexed": true,
          "internalType": "address",
          "name": "passenger",
          "type": "address"
        }
      ],
      "name": "OfferCancelled",
      "type": "event"
    },
    {
      "anonymous": false,
      "inputs": [
        {
          "indexed": true,
          "internalType": "address",
          "name": "passenger",
          "type": "address"
        },
        {
          "indexed": false,
          "internalType": "bytes32",
          "name": "token",
          "type": "bytes32"
        }
      ],
      "name": "PassengerTokenGenerated",
      "type": "event"
    },
    {
      "inputs": [],
      "name": "_fare",
      "outputs": [
        {
          "internalType": "uint256",
          "name": "",
          "type": "uint256"
        }
      ],
      "stateMutability": "view",
      "type": "function"
    },
    {
      "inputs": [],
      "name": "acceptOffer",
      "outputs": [],
      "stateMutability": "payable",
      "type": "function"
    },
    {
      "inputs": [
        {
          "internalType": "address payable",
          "name": "driverAddr",
          "type": "address"
        },
        {
          "internalType": "uint256",
          "name": "fare",
          "type": "uint256"
        }
      ],
      "name": "addDriver",
      "outputs": [],
      "stateMutability": "nonpayable",
      "type": "function"
    },
    {
      "inputs": [],
      "name": "cancel",
      "outputs": [],
      "stateMutability": "nonpayable",
      "type": "function"
    },
    {
      "inputs": [],
      "name": "charityAccount",
      "outputs": [
        {
          "internalType": "address payable",
          "name": "",
          "type": "address"
        }
      ],
      "stateMutability": "view",
      "type": "function"
    },
    {
      "inputs": [
        {
          "internalType": "uint256",
          "name": "driverId",
          "type": "uint256"
        }
      ],
      "name": "chooseDriver",
      "outputs": [],
      "stateMutability": "payable",
      "type": "function"
    },
    {
      "inputs": [],
      "name": "chosenFare",
      "outputs": [
        {
          "internalType": "uint256",
          "name": "",
          "type": "uint256"
        }
      ],
      "stateMutability": "view",
      "type": "function"
    },
    {
      "inputs": [],
      "name": "completed",
      "outputs": [
        {
          "internalType": "bool",
          "name": "",
          "type": "bool"
        }
      ],
      "stateMutability": "view",
      "type": "function"
    },
    {
      "inputs": [
        {
          "internalType": "uint256",
          "name": "",
          "type": "uint256"
        }
      ],
      "name": "driver_Token",
      "outputs": [
        {
          "internalType": "uint256",
          "name": "Totaldriver",
          "type": "uint256"
        },
        {
          "internalType": "address",
          "name": "addr",
          "type": "address"
        },
        {
          "internalType": "bytes32",
          "name": "token",
          "type": "bytes32"
        }
      ],
      "stateMutability": "view",
      "type": "function"
    },
    {
      "inputs": [
        {
          "internalType": "address",
          "name": "driverAddr",
          "type": "address"
        }
      ],
      "name": "driver_token",
      "outputs": [],
      "stateMutability": "nonpayable",
      "type": "function"
    },
    {
      "inputs": [
        {
          "internalType": "uint256",
          "name": "",
          "type": "uint256"
        }
      ],
      "name": "drivers",
      "outputs": [
        {
          "internalType": "uint256",
          "name": "id",
          "type": "uint256"
        },
        {
          "internalType": "address payable",
          "name": "addr",
          "type": "address"
        },
        {
          "internalType": "uint256",
          "name": "fare",
          "type": "uint256"
        }
      ],
      "stateMutability": "view",
      "type": "function"
    },
    {
      "inputs": [],
      "name": "numDrivers",
      "outputs": [
        {
          "internalType": "uint256",
          "name": "",
          "type": "uint256"
        }
      ],
      "stateMutability": "view",
      "type": "function"
    },
    {
      "inputs": [],
      "name": "passenger",
      "outputs": [
        {
          "internalType": "address payable",
          "name": "",
          "type": "address"
        }
      ],
      "stateMutability": "view",
      "type": "function"
    },
    {
      "inputs": [],
      "name": "passengerToken",
      "outputs": [
        {
          "internalType": "bytes32",
          "name": "",
          "type": "bytes32"
        }
      ],
      "stateMutability": "view",
      "type": "function"
    },
    {
      "inputs": [],
      "name": "totaldriver",
      "outputs": [
        {
          "internalType": "uint256",
          "name": "",
          "type": "uint256"
        }
      ],
      "stateMutability": "view",
      "type": "function"
    }
  ],
  "bytecode": "0x60806040523480156200001157600080fd5b5060405162001ae838038062001ae883398181016040528101906200003791906200021d565b81600660006101000a81548173ffffffffffffffffffffffffffffffffffffffff021916908373ffffffffffffffffffffffffffffffffffffffff16021790555060006007819055506000600860006101000a81548160ff021916908315150217905550600060038190555080600860016101000a81548173ffffffffffffffffffffffffffffffffffffffff021916908373ffffffffffffffffffffffffffffffffffffffff160217905550600660009054906101000a900473ffffffffffffffffffffffffffffffffffffffff16426040516020016200011b929190620002e3565b60405160208183030381529060405280519060200120600981905550600660009054906101000a900473ffffffffffffffffffffffffffffffffffffffff1673ffffffffffffffffffffffffffffffffffffffff167fcbdc36ab281f3a427e5f4c9b3fcea19611608e48eea1da6fd82fc779f8d0a7fc600954604051620001a391906200032e565b60405180910390a250506200034b565b600080fd5b600073ffffffffffffffffffffffffffffffffffffffff82169050919050565b6000620001e582620001b8565b9050919050565b620001f781620001d8565b81146200020357600080fd5b50565b6000815190506200021781620001ec565b92915050565b60008060408385031215620002375762000236620001b3565b5b6000620002478582860162000206565b92505060206200025a8582860162000206565b9150509250929050565b60008160601b9050919050565b60006200027e8262000264565b9050919050565b6000620002928262000271565b9050919050565b620002ae620002a882620001d8565b62000285565b82525050565b6000819050919050565b6000819050919050565b620002dd620002d782620002b4565b620002be565b82525050565b6000620002f1828562000299565b601482019150620003038284620002c8565b6020820191508190509392505050565b6000819050919050565b620003288162000313565b82525050565b60006020820190506200034560008301846200031d565b92915050565b61178d806200035b6000396000f3fe6080604052600436106100e85760003560e01c8063baaca96d1161008a578063ea8a1af011610059578063ea8a1af0146102d6578063eb62df61146102ed578063f79e5450146102f7578063f7fc506614610336576100e8565b8063baaca96d1461022a578063c11ae86f14610255578063c899b82614610280578063e75d5f04146102ab576100e8565b806344073b6f116100c657806344073b6f1461018257806345ca6745146101ad5780636aaa7db0146101d65780639d9a7fe9146101ff576100e8565b806303307ffb146100ed578063301756db1461011857806342e2fce514610143575b600080fd5b3480156100f957600080fd5b50610102610352565b60405161010f9190610e69565b60405180910390f35b34801561012457600080fd5b5061012d610358565b60405161013a9190610e9d565b60405180910390f35b34801561014f57600080fd5b5061016a60048036038101906101659190610ee9565b61035e565b60405161017993929190610f57565b60405180910390f35b34801561018e57600080fd5b506101976103a8565b6040516101a49190610e9d565b60405180910390f35b3480156101b957600080fd5b506101d460048036038101906101cf9190610fcc565b6103ae565b005b3480156101e257600080fd5b506101fd60048036038101906101f89190611038565b61059c565b005b34801561020b57600080fd5b506102146107b8565b6040516102219190611080565b60405180910390f35b34801561023657600080fd5b5061023f6107cb565b60405161024c9190610e9d565b60405180910390f35b34801561026157600080fd5b5061026a6107d1565b60405161027791906110aa565b60405180910390f35b34801561028c57600080fd5b506102956107f7565b6040516102a291906110aa565b60405180910390f35b3480156102b757600080fd5b506102c061081d565b6040516102cd9190610e9d565b60405180910390f35b3480156102e257600080fd5b506102eb610823565b005b6102f56109ee565b005b34801561030357600080fd5b5061031e60048036038101906103199190610ee9565b610ca7565b60405161032d939291906110c5565b60405180910390f35b610350600480360381019061034b9190610ee9565b610cf1565b005b60095481565b60055481565b60016020528060005260406000206000915090508060000154908060010160009054906101000a900473ffffffffffffffffffffffffffffffffffffffff16908060020154905083565b60045481565b735b38da6a701c568545dcfcb03fcb875f56beddc4600260006101000a81548173ffffffffffffffffffffffffffffffffffffffff021916908373ffffffffffffffffffffffffffffffffffffffff160217905550600260009054906101000a900473ffffffffffffffffffffffffffffffffffffffff1673ffffffffffffffffffffffffffffffffffffffff163373ffffffffffffffffffffffffffffffffffffffff1614610493576040517f08c379a000000000000000000000000000000000000000000000000000000000815260040161048a90611159565b60405180910390fd5b604051806060016040528060035481526020018373ffffffffffffffffffffffffffffffffffffffff1681526020018281525060008060035481526020019081526020016000206000820151816000015560208201518160010160006101000a81548173ffffffffffffffffffffffffffffffffffffffff021916908373ffffffffffffffffffffffffffffffffffffffff160217905550604082015181600201559050506003600081548092919061054b906111a8565b9190505550600160035461055f91906111f1565b7fbc4db09eef04f7f97b1b305fa92e7b6423294289cf105e65f577dc29aba84a888383604051610590929190611284565b60405180910390a25050565b735b38da6a701c568545dcfcb03fcb875f56beddc4600260006101000a81548173ffffffffffffffffffffffffffffffffffffffff021916908373ffffffffffffffffffffffffffffffffffffffff160217905550600260009054906101000a900473ffffffffffffffffffffffffffffffffffffffff1673ffffffffffffffffffffffffffffffffffffffff163373ffffffffffffffffffffffffffffffffffffffff1614610681576040517f08c379a000000000000000000000000000000000000000000000000000000000815260040161067890611159565b60405180910390fd5b60008142604051602001610696929190611316565b604051602081830303815290604052805190602001209050604051806060016040528060045481526020018373ffffffffffffffffffffffffffffffffffffffff168152602001828152506001600060045481526020019081526020016000206000820151816000015560208201518160010160006101000a81548173ffffffffffffffffffffffffffffffffffffffff021916908373ffffffffffffffffffffffffffffffffffffffff1602179055506040820151816002015590505060046000815480929190610767906111a8565b9190505550600160045461077b91906111f1565b7f03645fbaf6b57098c77e6e7d9972cddfeb12bbe17a0bd8fcce42eae9ed2a33fe83836040516107ac929190611342565b60405180910390a25050565b600860009054906101000a900460ff1681565b60035481565b600660009054906101000a900473ffffffffffffffffffffffffffffffffffffffff1681565b600860019054906101000a900473ffffffffffffffffffffffffffffffffffffffff1681565b60075481565b600660009054906101000a900473ffffffffffffffffffffffffffffffffffffffff1673ffffffffffffffffffffffffffffffffffffffff163373ffffffffffffffffffffffffffffffffffffffff16146108b3576040517f08c379a00000000000000000000000000000000000000000000000000000000081526004016108aa906113dd565b60405180910390fd5b600860009054906101000a900460ff1615610903576040517f08c379a00000000000000000000000000000000000000000000000000000000081526004016108fa9061146f565b60405180910390fd5b600660009054906101000a900473ffffffffffffffffffffffffffffffffffffffff1673ffffffffffffffffffffffffffffffffffffffff166108fc479081150290604051600060405180830381858888f1935050505015801561096b573d6000803e3d6000fd5b506001600860006101000a81548160ff021916908315150217905550600660009054906101000a900473ffffffffffffffffffffffffffffffffffffffff1673ffffffffffffffffffffffffffffffffffffffff167f58c450e79e079445cb4236ae6f118053d819a6d6477d4b4e91b3552a8ef00fc860405160405180910390a2565b600660009054906101000a900473ffffffffffffffffffffffffffffffffffffffff1673ffffffffffffffffffffffffffffffffffffffff163373ffffffffffffffffffffffffffffffffffffffff1614610a7e576040517f08c379a0000000000000000000000000000000000000000000000000000000008152600401610a7590611501565b60405180910390fd5b600060075411610ac3576040517f08c379a0000000000000000000000000000000000000000000000000000000008152600401610aba9061156d565b60405180910390fd5b600754341015610b08576040517f08c379a0000000000000000000000000000000000000000000000000000000008152600401610aff906115d9565b60405180910390fd5b6000606434610b179190611628565b90506000806001600354610b2b91906111f1565b815260200190815260200160002060010160009054906101000a900473ffffffffffffffffffffffffffffffffffffffff1673ffffffffffffffffffffffffffffffffffffffff166108fc8234610b8291906111f1565b9081150290604051600060405180830381858888f19350505050158015610bad573d6000803e3d6000fd5b50600860019054906101000a900473ffffffffffffffffffffffffffffffffffffffff1673ffffffffffffffffffffffffffffffffffffffff166108fc829081150290604051600060405180830381858888f19350505050158015610c16573d6000803e3d6000fd5b506001600860006101000a81548160ff021916908315150217905550600660009054906101000a900473ffffffffffffffffffffffffffffffffffffffff1673ffffffffffffffffffffffffffffffffffffffff167f18f9d2c9031a53ca9e501ddaadc6e66758b39bbf424cf4e22c62b6003fbd240c600754604051610c9c9190610e9d565b60405180910390a250565b60006020528060005260406000206000915090508060000154908060010160009054906101000a900473ffffffffffffffffffffffffffffffffffffffff16908060020154905083565b600660009054906101000a900473ffffffffffffffffffffffffffffffffffffffff1673ffffffffffffffffffffffffffffffffffffffff163373ffffffffffffffffffffffffffffffffffffffff1614610d81576040517f08c379a0000000000000000000000000000000000000000000000000000000008152600401610d78906116cb565b60405180910390fd5b6003548110610dc5576040517f08c379a0000000000000000000000000000000000000000000000000000000008152600401610dbc90611737565b60405180910390fd5b60008060008381526020019081526020016000209050806002015460078190555080600001547f2ab28fd10f2b43850869f000ce2a725d2f9e8fe2876367ef32f0ab9fcc7b58c28260010160009054906101000a900473ffffffffffffffffffffffffffffffffffffffff168360020154604051610e44929190611284565b60405180910390a25050565b6000819050919050565b610e6381610e50565b82525050565b6000602082019050610e7e6000830184610e5a565b92915050565b6000819050919050565b610e9781610e84565b82525050565b6000602082019050610eb26000830184610e8e565b92915050565b600080fd5b610ec681610e84565b8114610ed157600080fd5b50565b600081359050610ee381610ebd565b92915050565b600060208284031215610eff57610efe610eb8565b5b6000610f0d84828501610ed4565b91505092915050565b600073ffffffffffffffffffffffffffffffffffffffff82169050919050565b6000610f4182610f16565b9050919050565b610f5181610f36565b82525050565b6000606082019050610f6c6000830186610e8e565b610f796020830185610f48565b610f866040830184610e5a565b949350505050565b6000610f9982610f16565b9050919050565b610fa981610f8e565b8114610fb457600080fd5b50565b600081359050610fc681610fa0565b92915050565b60008060408385031215610fe357610fe2610eb8565b5b6000610ff185828601610fb7565b925050602061100285828601610ed4565b9150509250929050565b61101581610f36565b811461102057600080fd5b50565b6000813590506110328161100c565b92915050565b60006020828403121561104e5761104d610eb8565b5b600061105c84828501611023565b91505092915050565b60008115159050919050565b61107a81611065565b82525050565b60006020820190506110956000830184611071565b92915050565b6110a481610f8e565b82525050565b60006020820190506110bf600083018461109b565b92915050565b60006060820190506110da6000830186610e8e565b6110e7602083018561109b565b6110f46040830184610e8e565b949350505050565b600082825260208201905092915050565b7f4e6f74206f776e65720000000000000000000000000000000000000000000000600082015250565b60006111436009836110fc565b915061114e8261110d565b602082019050919050565b6000602082019050818103600083015261117281611136565b9050919050565b7f4e487b7100000000000000000000000000000000000000000000000000000000600052601160045260246000fd5b60006111b382610e84565b91507fffffffffffffffffffffffffffffffffffffffffffffffffffffffffffffffff8214156111e6576111e5611179565b5b600182019050919050565b60006111fc82610e84565b915061120783610e84565b92508282101561121a57611219611179565b5b828203905092915050565b6000819050919050565b600061124a61124561124084610f16565b611225565b610f16565b9050919050565b600061125c8261122f565b9050919050565b600061126e82611251565b9050919050565b61127e81611263565b82525050565b60006040820190506112996000830185611275565b6112a66020830184610e8e565b9392505050565b60008160601b9050919050565b60006112c5826112ad565b9050919050565b60006112d7826112ba565b9050919050565b6112ef6112ea82610f36565b6112cc565b82525050565b6000819050919050565b61131061130b82610e84565b6112f5565b82525050565b600061132282856112de565b60148201915061133282846112ff565b6020820191508190509392505050565b60006040820190506113576000830185610f48565b6113646020830184610e5a565b9392505050565b7f4f6e6c79207468652070617373656e6765722063616e2063616e63656c20746860008201527f65206f6666657200000000000000000000000000000000000000000000000000602082015250565b60006113c76027836110fc565b91506113d28261136b565b604082019050919050565b600060208201905081810360008301526113f6816113ba565b9050919050565b7f546865207472616e73616374696f6e2068617320616c7265616479206265656e60008201527f20636f6d706c6574656400000000000000000000000000000000000000000000602082015250565b6000611459602a836110fc565b9150611464826113fd565b604082019050919050565b600060208201905081810360008301526114888161144c565b9050919050565b7f4f6e6c79207468652070617373656e6765722063616e2061636365707420746860008201527f65206f6666657200000000000000000000000000000000000000000000000000602082015250565b60006114eb6027836110fc565b91506114f68261148f565b604082019050919050565b6000602082019050818103600083015261151a816114de565b9050919050565b7f4e6f2064726976657220686173206265656e2063686f73656e00000000000000600082015250565b60006115576019836110fc565b915061156282611521565b602082019050919050565b600060208201905081810360008301526115868161154a565b9050919050565b7f5468652066617265206f666665726564206973206e6f7420656e6f7567680000600082015250565b60006115c3601e836110fc565b91506115ce8261158d565b602082019050919050565b600060208201905081810360008301526115f2816115b6565b9050919050565b7f4e487b7100000000000000000000000000000000000000000000000000000000600052601260045260246000fd5b600061163382610e84565b915061163e83610e84565b92508261164e5761164d6115f9565b5b828204905092915050565b7f4f6e6c79207468652070617373656e6765722063616e2063686f6f736520612060008201527f6472697665720000000000000000000000000000000000000000000000000000602082015250565b60006116b56026836110fc565b91506116c082611659565b604082019050919050565b600060208201905081810360008301526116e4816116a8565b9050919050565b7f496e76616c696420647269766572204944000000000000000000000000000000600082015250565b60006117216011836110fc565b915061172c826116eb565b602082019050919050565b6000602082019050818103600083015261175081611714565b905091905056fea2646970667358221220a5662112a6cdc2398034ad7c548a1aa7912344458189f77b3af70a15ae5d109a64736f6c63430008080033",
  "linkReferences": {},
  "deployedLinkReferences": {}
}