{"contracts/rideshare.sol":{"uber":{"abi":[{"inputs":[{"internalType":"address payable","name":"_passenger","type":"address"},{"internalType":"address payable","name":"_charity","type":"address"}],"stateMutability":"nonpayable","type":"constructor"},{"anonymous":false,"inputs":[{"indexed":true,"internalType":"uint256","name":"id","type":"uint256"},{"indexed":false,"internalType":"address","name":"addr","type":"address"},{"indexed":false,"internalType":"uint256","name":"fare","type":"uint256"}],"name":"DriverAdded","type":"event"},{"anonymous":false,"inputs":[{"indexed":true,"internalType":"uint256","name":"id","type":"uint256"},{"indexed":false,"internalType":"address","name":"addr","type":"address"},{"indexed":false,"internalType":"uint256","name":"fare","type":"uint256"}],"name":"DriverChosen","type":"event"},{"anonymous":false,"inputs":[{"indexed":true,"internalType":"uint256","name":"Totalid","type":"uint256"},{"indexed":false,"internalType":"address","name":"addr","type":"address"},{"indexed":false,"internalType":"bytes32","name":"token","type":"bytes32"}],"name":"Drivertoken","type":"event"},{"anonymous":false,"inputs":[{"indexed":true,"internalType":"address","name":"passenger","type":"address"},{"indexed":false,"internalType":"uint256","name":"fare","type":"uint256"}],"name":"OfferAccepted","type":"event"},{"anonymous":false,"inputs":[{"indexed":true,"internalType":"address","name":"passenger","type":"address"}],"name":"OfferCancelled","type":"event"},{"anonymous":false,"inputs":[{"indexed":true,"internalType":"address","name":"passenger","type":"address"},{"indexed":false,"internalType":"bytes32","name":"token","type":"bytes32"}],"name":"PassengerTokenGenerated","type":"event"},{"inputs":[],"name":"_fare","outputs":[{"internalType":"uint256","name":"","type":"uint256"}],"stateMutability":"view","type":"function"},{"inputs":[],"name":"acceptOffer","outputs":[],"stateMutability":"payable","type":"function"},{"inputs":[{"internalType":"address payable","name":"driverAddr","type":"address"},{"internalType":"uint256","name":"fare","type":"uint256"}],"name":"addDriver","outputs":[],"stateMutability":"nonpayable","type":"function"},{"inputs":[],"name":"cancel","outputs":[],"stateMutability":"nonpayable","type":"function"},{"inputs":[],"name":"charityAccount","outputs":[{"internalType":"address payable","name":"","type":"address"}],"stateMutability":"view","type":"function"},{"inputs":[{"internalType":"uint256","name":"driverId","type":"uint256"}],"name":"chooseDriver","outputs":[],"stateMutability":"payable","type":"function"},{"inputs":[],"name":"chosenFare","outputs":[{"internalType":"uint256","name":"","type":"uint256"}],"stateMutability":"view","type":"function"},{"inputs":[],"name":"completed","outputs":[{"internalType":"bool","name":"","type":"bool"}],"stateMutability":"view","type":"function"},{"inputs":[{"internalType":"uint256","name":"","type":"uint256"}],"name":"driver_Token","outputs":[{"internalType":"uint256","name":"Totaldriver","type":"uint256"},{"internalType":"address","name":"addr","type":"address"},{"internalType":"bytes32","name":"token","type":"bytes32"}],"stateMutability":"view","type":"function"},{"inputs":[{"internalType":"address","name":"driverAddr","type":"address"}],"name":"driver_token","outputs":[],"stateMutability":"nonpayable","type":"function"},{"inputs":[{"internalType":"uint256","name":"","type":"uint256"}],"name":"drivers","outputs":[{"internalType":"uint256","name":"id","type":"uint256"},{"internalType":"address payable","name":"addr","type":"address"},{"internalType":"uint256","name":"fare","type":"uint256"}],"stateMutability":"view","type":"function"},{"inputs":[],"name":"numDrivers","outputs":[{"internalType":"uint256","name":"","type":"uint256"}],"stateMutability":"view","type":"function"},{"inputs":[],"name":"passenger","outputs":[{"internalType":"address payable","name":"","type":"address"}],"stateMutability":"view","type":"function"},{"inputs":[],"name":"passengerToken","outputs":[{"internalType":"bytes32","name":"","type":"bytes32"}],"stateMutability":"view","type":"function"},{"inputs":[],"name":"totaldriver","outputs":[{"internalType":"uint256","name":"","type":"uint256"}],"stateMutability":"view","type":"function"}],"devdoc":{"kind":"dev","methods":{},"version":1},"evm":{"bytecode":{"linkReferences":{},"object":"60806040523480156200001157600080fd5b5060405162001ae838038062001ae883398181016040528101906200003791906200021d565b81600660006101000a81548173ffffffffffffffffffffffffffffffffffffffff021916908373ffffffffffffffffffffffffffffffffffffffff16021790555060006007819055506000600860006101000a81548160ff021916908315150217905550600060038190555080600860016101000a81548173ffffffffffffffffffffffffffffffffffffffff021916908373ffffffffffffffffffffffffffffffffffffffff160217905550600660009054906101000a900473ffffffffffffffffffffffffffffffffffffffff16426040516020016200011b929190620002e3565b60405160208183030381529060405280519060200120600981905550600660009054906101000a900473ffffffffffffffffffffffffffffffffffffffff1673ffffffffffffffffffffffffffffffffffffffff167fcbdc36ab281f3a427e5f4c9b3fcea19611608e48eea1da6fd82fc779f8d0a7fc600954604051620001a391906200032e565b60405180910390a250506200034b565b600080fd5b600073ffffffffffffffffffffffffffffffffffffffff82169050919050565b6000620001e582620001b8565b9050919050565b620001f781620001d8565b81146200020357600080fd5b50565b6000815190506200021781620001ec565b92915050565b60008060408385031215620002375762000236620001b3565b5b6000620002478582860162000206565b92505060206200025a8582860162000206565b9150509250929050565b60008160601b9050919050565b60006200027e8262000264565b9050919050565b6000620002928262000271565b9050919050565b620002ae620002a882620001d8565b62000285565b82525050565b6000819050919050565b6000819050919050565b620002dd620002d782620002b4565b620002be565b82525050565b6000620002f1828562000299565b601482019150620003038284620002c8565b6020820191508190509392505050565b6000819050919050565b620003288162000313565b82525050565b60006020820190506200034560008301846200031d565b92915050565b61178d806200035b6000396000f3fe6080604052600436106100e85760003560e01c8063baaca96d1161008a578063ea8a1af011610059578063ea8a1af0146102d6578063eb62df61146102ed578063f79e5450146102f7578063f7fc506614610336576100e8565b8063baaca96d1461022a578063c11ae86f14610255578063c899b82614610280578063e75d5f04146102ab576100e8565b806344073b6f116100c657806344073b6f1461018257806345ca6745146101ad5780636aaa7db0146101d65780639d9a7fe9146101ff576100e8565b806303307ffb146100ed578063301756db1461011857806342e2fce514610143575b600080fd5b3480156100f957600080fd5b50610102610352565b60405161010f9190610e69565b60405180910390f35b34801561012457600080fd5b5061012d610358565b60405161013a9190610e9d565b60405180910390f35b34801561014f57600080fd5b5061016a60048036038101906101659190610ee9565b61035e565b60405161017993929190610f57565b60405180910390f35b34801561018e57600080fd5b506101976103a8565b6040516101a49190610e9d565b60405180910390f35b3480156101b957600080fd5b506101d460048036038101906101cf9190610fcc565b6103ae565b005b3480156101e257600080fd5b506101fd60048036038101906101f89190611038565b61059c565b005b34801561020b57600080fd5b506102146107b8565b6040516102219190611080565b60405180910390f35b34801561023657600080fd5b5061023f6107cb565b60405161024c9190610e9d565b60405180910390f35b34801561026157600080fd5b5061026a6107d1565b60405161027791906110aa565b60405180910390f35b34801561028c57600080fd5b506102956107f7565b6040516102a291906110aa565b60405180910390f35b3480156102b757600080fd5b506102c061081d565b6040516102cd9190610e9d565b60405180910390f35b3480156102e257600080fd5b506102eb610823565b005b6102f56109ee565b005b34801561030357600080fd5b5061031e60048036038101906103199190610ee9565b610ca7565b60405161032d939291906110c5565b60405180910390f35b610350600480360381019061034b9190610ee9565b610cf1565b005b60095481565b60055481565b60016020528060005260406000206000915090508060000154908060010160009054906101000a900473ffffffffffffffffffffffffffffffffffffffff16908060020154905083565b60045481565b735b38da6a701c568545dcfcb03fcb875f56beddc4600260006101000a81548173ffffffffffffffffffffffffffffffffffffffff021916908373ffffffffffffffffffffffffffffffffffffffff160217905550600260009054906101000a900473ffffffffffffffffffffffffffffffffffffffff1673ffffffffffffffffffffffffffffffffffffffff163373ffffffffffffffffffffffffffffffffffffffff1614610493576040517f08c379a000000000000000000000000000000000000000000000000000000000815260040161048a90611159565b60405180910390fd5b604051806060016040528060035481526020018373ffffffffffffffffffffffffffffffffffffffff1681526020018281525060008060035481526020019081526020016000206000820151816000015560208201518160010160006101000a81548173ffffffffffffffffffffffffffffffffffffffff021916908373ffffffffffffffffffffffffffffffffffffffff160217905550604082015181600201559050506003600081548092919061054b906111a8565b9190505550600160035461055f91906111f1565b7fbc4db09eef04f7f97b1b305fa92e7b6423294289cf105e65f577dc29aba84a888383604051610590929190611284565b60405180910390a25050565b735b38da6a701c568545dcfcb03fcb875f56beddc4600260006101000a81548173ffffffffffffffffffffffffffffffffffffffff021916908373ffffffffffffffffffffffffffffffffffffffff160217905550600260009054906101000a900473ffffffffffffffffffffffffffffffffffffffff1673ffffffffffffffffffffffffffffffffffffffff163373ffffffffffffffffffffffffffffffffffffffff1614610681576040517f08c379a000000000000000000000000000000000000000000000000000000000815260040161067890611159565b60405180910390fd5b60008142604051602001610696929190611316565b604051602081830303815290604052805190602001209050604051806060016040528060045481526020018373ffffffffffffffffffffffffffffffffffffffff168152602001828152506001600060045481526020019081526020016000206000820151816000015560208201518160010160006101000a81548173ffffffffffffffffffffffffffffffffffffffff021916908373ffffffffffffffffffffffffffffffffffffffff1602179055506040820151816002015590505060046000815480929190610767906111a8565b9190505550600160045461077b91906111f1565b7f03645fbaf6b57098c77e6e7d9972cddfeb12bbe17a0bd8fcce42eae9ed2a33fe83836040516107ac929190611342565b60405180910390a25050565b600860009054906101000a900460ff1681565b60035481565b600660009054906101000a900473ffffffffffffffffffffffffffffffffffffffff1681565b600860019054906101000a900473ffffffffffffffffffffffffffffffffffffffff1681565b60075481565b600660009054906101000a900473ffffffffffffffffffffffffffffffffffffffff1673ffffffffffffffffffffffffffffffffffffffff163373ffffffffffffffffffffffffffffffffffffffff16146108b3576040517f08c379a00000000000000000000000000000000000000000000000000000000081526004016108aa906113dd565b60405180910390fd5b600860009054906101000a900460ff1615610903576040517f08c379a00000000000000000000000000000000000000000000000000000000081526004016108fa9061146f565b60405180910390fd5b600660009054906101000a900473ffffffffffffffffffffffffffffffffffffffff1673ffffffffffffffffffffffffffffffffffffffff166108fc479081150290604051600060405180830381858888f1935050505015801561096b573d6000803e3d6000fd5b506001600860006101000a81548160ff021916908315150217905550600660009054906101000a900473ffffffffffffffffffffffffffffffffffffffff1673ffffffffffffffffffffffffffffffffffffffff167f58c450e79e079445cb4236ae6f118053d819a6d6477d4b4e91b3552a8ef00fc860405160405180910390a2565b600660009054906101000a900473ffffffffffffffffffffffffffffffffffffffff1673ffffffffffffffffffffffffffffffffffffffff163373ffffffffffffffffffffffffffffffffffffffff1614610a7e576040517f08c379a0000000000000000000000000000000000000000000000000000000008152600401610a7590611501565b60405180910390fd5b600060075411610ac3576040517f08c379a0000000000000000000000000000000000000000000000000000000008152600401610aba9061156d565b60405180910390fd5b600754341015610b08576040517f08c379a0000000000000000000000000000000000000000000000000000000008152600401610aff906115d9565b60405180910390fd5b6000606434610b179190611628565b90506000806001600354610b2b91906111f1565b815260200190815260200160002060010160009054906101000a900473ffffffffffffffffffffffffffffffffffffffff1673ffffffffffffffffffffffffffffffffffffffff166108fc8234610b8291906111f1565b9081150290604051600060405180830381858888f19350505050158015610bad573d6000803e3d6000fd5b50600860019054906101000a900473ffffffffffffffffffffffffffffffffffffffff1673ffffffffffffffffffffffffffffffffffffffff166108fc829081150290604051600060405180830381858888f19350505050158015610c16573d6000803e3d6000fd5b506001600860006101000a81548160ff021916908315150217905550600660009054906101000a900473ffffffffffffffffffffffffffffffffffffffff1673ffffffffffffffffffffffffffffffffffffffff167f18f9d2c9031a53ca9e501ddaadc6e66758b39bbf424cf4e22c62b6003fbd240c600754604051610c9c9190610e9d565b60405180910390a250565b60006020528060005260406000206000915090508060000154908060010160009054906101000a900473ffffffffffffffffffffffffffffffffffffffff16908060020154905083565b600660009054906101000a900473ffffffffffffffffffffffffffffffffffffffff1673ffffffffffffffffffffffffffffffffffffffff163373ffffffffffffffffffffffffffffffffffffffff1614610d81576040517f08c379a0000000000000000000000000000000000000000000000000000000008152600401610d78906116cb565b60405180910390fd5b6003548110610dc5576040517f08c379a0000000000000000000000000000000000000000000000000000000008152600401610dbc90611737565b60405180910390fd5b60008060008381526020019081526020016000209050806002015460078190555080600001547f2ab28fd10f2b43850869f000ce2a725d2f9e8fe2876367ef32f0ab9fcc7b58c28260010160009054906101000a900473ffffffffffffffffffffffffffffffffffffffff168360020154604051610e44929190611284565b60405180910390a25050565b6000819050919050565b610e6381610e50565b82525050565b6000602082019050610e7e6000830184610e5a565b92915050565b6000819050919050565b610e9781610e84565b82525050565b6000602082019050610eb26000830184610e8e565b92915050565b600080fd5b610ec681610e84565b8114610ed157600080fd5b50565b600081359050610ee381610ebd565b92915050565b600060208284031215610eff57610efe610eb8565b5b6000610f0d84828501610ed4565b91505092915050565b600073ffffffffffffffffffffffffffffffffffffffff82169050919050565b6000610f4182610f16565b9050919050565b610f5181610f36565b82525050565b6000606082019050610f6c6000830186610e8e565b610f796020830185610f48565b610f866040830184610e5a565b949350505050565b6000610f9982610f16565b9050919050565b610fa981610f8e565b8114610fb457600080fd5b50565b600081359050610fc681610fa0565b92915050565b60008060408385031215610fe357610fe2610eb8565b5b6000610ff185828601610fb7565b925050602061100285828601610ed4565b9150509250929050565b61101581610f36565b811461102057600080fd5b50565b6000813590506110328161100c565b92915050565b60006020828403121561104e5761104d610eb8565b5b600061105c84828501611023565b91505092915050565b60008115159050919050565b61107a81611065565b82525050565b60006020820190506110956000830184611071565b92915050565b6110a481610f8e565b82525050565b60006020820190506110bf600083018461109b565b92915050565b60006060820190506110da6000830186610e8e565b6110e7602083018561109b565b6110f46040830184610e8e565b949350505050565b600082825260208201905092915050565b7f4e6f74206f776e65720000000000000000000000000000000000000000000000600082015250565b60006111436009836110fc565b915061114e8261110d565b602082019050919050565b6000602082019050818103600083015261117281611136565b9050919050565b7f4e487b7100000000000000000000000000000000000000000000000000000000600052601160045260246000fd5b60006111b382610e84565b91507fffffffffffffffffffffffffffffffffffffffffffffffffffffffffffffffff8214156111e6576111e5611179565b5b600182019050919050565b60006111fc82610e84565b915061120783610e84565b92508282101561121a57611219611179565b5b828203905092915050565b6000819050919050565b600061124a61124561124084610f16565b611225565b610f16565b9050919050565b600061125c8261122f565b9050919050565b600061126e82611251565b9050919050565b61127e81611263565b82525050565b60006040820190506112996000830185611275565b6112a66020830184610e8e565b9392505050565b60008160601b9050919050565b60006112c5826112ad565b9050919050565b60006112d7826112ba565b9050919050565b6112ef6112ea82610f36565b6112cc565b82525050565b6000819050919050565b61131061130b82610e84565b6112f5565b82525050565b600061132282856112de565b60148201915061133282846112ff565b6020820191508190509392505050565b60006040820190506113576000830185610f48565b6113646020830184610e5a565b9392505050565b7f4f6e6c79207468652070617373656e6765722063616e2063616e63656c20746860008201527f65206f6666657200000000000000000000000000000000000000000000000000602082015250565b60006113c76027836110fc565b91506113d28261136b565b604082019050919050565b600060208201905081810360008301526113f6816113ba565b9050919050565b7f546865207472616e73616374696f6e2068617320616c7265616479206265656e60008201527f20636f6d706c6574656400000000000000000000000000000000000000000000602082015250565b6000611459602a836110fc565b9150611464826113fd565b604082019050919050565b600060208201905081810360008301526114888161144c565b9050919050565b7f4f6e6c79207468652070617373656e6765722063616e2061636365707420746860008201527f65206f6666657200000000000000000000000000000000000000000000000000602082015250565b60006114eb6027836110fc565b91506114f68261148f565b604082019050919050565b6000602082019050818103600083015261151a816114de565b9050919050565b7f4e6f2064726976657220686173206265656e2063686f73656e00000000000000600082015250565b60006115576019836110fc565b915061156282611521565b602082019050919050565b600060208201905081810360008301526115868161154a565b9050919050565b7f5468652066617265206f666665726564206973206e6f7420656e6f7567680000600082015250565b60006115c3601e836110fc565b91506115ce8261158d565b602082019050919050565b600060208201905081810360008301526115f2816115b6565b9050919050565b7f4e487b7100000000000000000000000000000000000000000000000000000000600052601260045260246000fd5b600061163382610e84565b915061163e83610e84565b92508261164e5761164d6115f9565b5b828204905092915050565b7f4f6e6c79207468652070617373656e6765722063616e2063686f6f736520612060008201527f6472697665720000000000000000000000000000000000000000000000000000602082015250565b60006116b56026836110fc565b91506116c082611659565b604082019050919050565b600060208201905081810360008301526116e4816116a8565b9050919050565b7f496e76616c696420647269766572204944000000000000000000000000000000600082015250565b60006117216011836110fc565b915061172c826116eb565b602082019050919050565b6000602082019050818103600083015261175081611714565b905091905056fea2646970667358221220a5662112a6cdc2398034ad7c548a1aa7912344458189f77b3af70a15ae5d109a64736f6c63430008080033","opcodes":"PUSH1 0x80 PUSH1 0x40 MSTORE CALLVALUE DUP1 ISZERO PUSH3 0x11 JUMPI PUSH1 0x0 DUP1 REVERT JUMPDEST POP PUSH1 0x40 MLOAD PUSH3 0x1AE8 CODESIZE SUB DUP1 PUSH3 0x1AE8 DUP4 CODECOPY DUP2 DUP2 ADD PUSH1 0x40 MSTORE DUP2 ADD SWAP1 PUSH3 0x37 SWAP2 SWAP1 PUSH3 0x21D JUMP JUMPDEST DUP2 PUSH1 0x6 PUSH1 0x0 PUSH2 0x100 EXP DUP2 SLOAD DUP2 PUSH20 0xFFFFFFFFFFFFFFFFFFFFFFFFFFFFFFFFFFFFFFFF MUL NOT AND SWAP1 DUP4 PUSH20 0xFFFFFFFFFFFFFFFFFFFFFFFFFFFFFFFFFFFFFFFF AND MUL OR SWAP1 SSTORE POP PUSH1 0x0 PUSH1 0x7 DUP2 SWAP1 SSTORE POP PUSH1 0x0 PUSH1 0x8 PUSH1 0x0 PUSH2 0x100 EXP DUP2 SLOAD DUP2 PUSH1 0xFF MUL NOT AND SWAP1 DUP4 ISZERO ISZERO MUL OR SWAP1 SSTORE POP PUSH1 0x0 PUSH1 0x3 DUP2 SWAP1 SSTORE POP DUP1 PUSH1 0x8 PUSH1 0x1 PUSH2 0x100 EXP DUP2 SLOAD DUP2 PUSH20 0xFFFFFFFFFFFFFFFFFFFFFFFFFFFFFFFFFFFFFFFF MUL NOT AND SWAP1 DUP4 PUSH20 0xFFFFFFFFFFFFFFFFFFFFFFFFFFFFFFFFFFFFFFFF AND MUL OR SWAP1 SSTORE POP PUSH1 0x6 PUSH1 0x0 SWAP1 SLOAD SWAP1 PUSH2 0x100 EXP SWAP1 DIV PUSH20 0xFFFFFFFFFFFFFFFFFFFFFFFFFFFFFFFFFFFFFFFF AND TIMESTAMP PUSH1 0x40 MLOAD PUSH1 0x20 ADD PUSH3 0x11B SWAP3 SWAP2 SWAP1 PUSH3 0x2E3 JUMP JUMPDEST PUSH1 0x40 MLOAD PUSH1 0x20 DUP2 DUP4 SUB SUB DUP2 MSTORE SWAP1 PUSH1 0x40 MSTORE DUP1 MLOAD SWAP1 PUSH1 0x20 ADD KECCAK256 PUSH1 0x9 DUP2 SWAP1 SSTORE POP PUSH1 0x6 PUSH1 0x0 SWAP1 SLOAD SWAP1 PUSH2 0x100 EXP SWAP1 DIV PUSH20 0xFFFFFFFFFFFFFFFFFFFFFFFFFFFFFFFFFFFFFFFF AND PUSH20 0xFFFFFFFFFFFFFFFFFFFFFFFFFFFFFFFFFFFFFFFF AND PUSH32 0xCBDC36AB281F3A427E5F4C9B3FCEA19611608E48EEA1DA6FD82FC779F8D0A7FC PUSH1 0x9 SLOAD PUSH1 0x40 MLOAD PUSH3 0x1A3 SWAP2 SWAP1 PUSH3 0x32E JUMP JUMPDEST PUSH1 0x40 MLOAD DUP1 SWAP2 SUB SWAP1 LOG2 POP POP PUSH3 0x34B JUMP JUMPDEST PUSH1 0x0 DUP1 REVERT JUMPDEST PUSH1 0x0 PUSH20 0xFFFFFFFFFFFFFFFFFFFFFFFFFFFFFFFFFFFFFFFF DUP3 AND SWAP1 POP SWAP2 SWAP1 POP JUMP JUMPDEST PUSH1 0x0 PUSH3 0x1E5 DUP3 PUSH3 0x1B8 JUMP JUMPDEST SWAP1 POP SWAP2 SWAP1 POP JUMP JUMPDEST PUSH3 0x1F7 DUP2 PUSH3 0x1D8 JUMP JUMPDEST DUP2 EQ PUSH3 0x203 JUMPI PUSH1 0x0 DUP1 REVERT JUMPDEST POP JUMP JUMPDEST PUSH1 0x0 DUP2 MLOAD SWAP1 POP PUSH3 0x217 DUP2 PUSH3 0x1EC JUMP JUMPDEST SWAP3 SWAP2 POP POP JUMP JUMPDEST PUSH1 0x0 DUP1 PUSH1 0x40 DUP4 DUP6 SUB SLT ISZERO PUSH3 0x237 JUMPI PUSH3 0x236 PUSH3 0x1B3 JUMP JUMPDEST JUMPDEST PUSH1 0x0 PUSH3 0x247 DUP6 DUP3 DUP7 ADD PUSH3 0x206 JUMP JUMPDEST SWAP3 POP POP PUSH1 0x20 PUSH3 0x25A DUP6 DUP3 DUP7 ADD PUSH3 0x206 JUMP JUMPDEST SWAP2 POP POP SWAP3 POP SWAP3 SWAP1 POP JUMP JUMPDEST PUSH1 0x0 DUP2 PUSH1 0x60 SHL SWAP1 POP SWAP2 SWAP1 POP JUMP JUMPDEST PUSH1 0x0 PUSH3 0x27E DUP3 PUSH3 0x264 JUMP JUMPDEST SWAP1 POP SWAP2 SWAP1 POP JUMP JUMPDEST PUSH1 0x0 PUSH3 0x292 DUP3 PUSH3 0x271 JUMP JUMPDEST SWAP1 POP SWAP2 SWAP1 POP JUMP JUMPDEST PUSH3 0x2AE PUSH3 0x2A8 DUP3 PUSH3 0x1D8 JUMP JUMPDEST PUSH3 0x285 JUMP JUMPDEST DUP3 MSTORE POP POP JUMP JUMPDEST PUSH1 0x0 DUP2 SWAP1 POP SWAP2 SWAP1 POP JUMP JUMPDEST PUSH1 0x0 DUP2 SWAP1 POP SWAP2 SWAP1 POP JUMP JUMPDEST PUSH3 0x2DD PUSH3 0x2D7 DUP3 PUSH3 0x2B4 JUMP JUMPDEST PUSH3 0x2BE JUMP JUMPDEST DUP3 MSTORE POP POP JUMP JUMPDEST PUSH1 0x0 PUSH3 0x2F1 DUP3 DUP6 PUSH3 0x299 JUMP JUMPDEST PUSH1 0x14 DUP3 ADD SWAP2 POP PUSH3 0x303 DUP3 DUP5 PUSH3 0x2C8 JUMP JUMPDEST PUSH1 0x20 DUP3 ADD SWAP2 POP DUP2 SWAP1 POP SWAP4 SWAP3 POP POP POP JUMP JUMPDEST PUSH1 0x0 DUP2 SWAP1 POP SWAP2 SWAP1 POP JUMP JUMPDEST PUSH3 0x328 DUP2 PUSH3 0x313 JUMP JUMPDEST DUP3 MSTORE POP POP JUMP JUMPDEST PUSH1 0x0 PUSH1 0x20 DUP3 ADD SWAP1 POP PUSH3 0x345 PUSH1 0x0 DUP4 ADD DUP5 PUSH3 0x31D JUMP JUMPDEST SWAP3 SWAP2 POP POP JUMP JUMPDEST PUSH2 0x178D DUP1 PUSH3 0x35B PUSH1 0x0 CODECOPY PUSH1 0x0 RETURN INVALID PUSH1 0x80 PUSH1 0x40 MSTORE PUSH1 0x4 CALLDATASIZE LT PUSH2 0xE8 JUMPI PUSH1 0x0 CALLDATALOAD PUSH1 0xE0 SHR DUP1 PUSH4 0xBAACA96D GT PUSH2 0x8A JUMPI DUP1 PUSH4 0xEA8A1AF0 GT PUSH2 0x59 JUMPI DUP1 PUSH4 0xEA8A1AF0 EQ PUSH2 0x2D6 JUMPI DUP1 PUSH4 0xEB62DF61 EQ PUSH2 0x2ED JUMPI DUP1 PUSH4 0xF79E5450 EQ PUSH2 0x2F7 JUMPI DUP1 PUSH4 0xF7FC5066 EQ PUSH2 0x336 JUMPI PUSH2 0xE8 JUMP JUMPDEST DUP1 PUSH4 0xBAACA96D EQ PUSH2 0x22A JUMPI DUP1 PUSH4 0xC11AE86F EQ PUSH2 0x255 JUMPI DUP1 PUSH4 0xC899B826 EQ PUSH2 0x280 JUMPI DUP1 PUSH4 0xE75D5F04 EQ PUSH2 0x2AB JUMPI PUSH2 0xE8 JUMP JUMPDEST DUP1 PUSH4 0x44073B6F GT PUSH2 0xC6 JUMPI DUP1 PUSH4 0x44073B6F EQ PUSH2 0x182 JUMPI DUP1 PUSH4 0x45CA6745 EQ PUSH2 0x1AD JUMPI DUP1 PUSH4 0x6AAA7DB0 EQ PUSH2 0x1D6 JUMPI DUP1 PUSH4 0x9D9A7FE9 EQ PUSH2 0x1FF JUMPI PUSH2 0xE8 JUMP JUMPDEST DUP1 PUSH4 0x3307FFB EQ PUSH2 0xED JUMPI DUP1 PUSH4 0x301756DB EQ PUSH2 0x118 JUMPI DUP1 PUSH4 0x42E2FCE5 EQ PUSH2 0x143 JUMPI JUMPDEST PUSH1 0x0 DUP1 REVERT JUMPDEST CALLVALUE DUP1 ISZERO PUSH2 0xF9 JUMPI PUSH1 0x0 DUP1 REVERT JUMPDEST POP PUSH2 0x102 PUSH2 0x352 JUMP JUMPDEST PUSH1 0x40 MLOAD PUSH2 0x10F SWAP2 SWAP1 PUSH2 0xE69 JUMP JUMPDEST PUSH1 0x40 MLOAD DUP1 SWAP2 SUB SWAP1 RETURN JUMPDEST CALLVALUE DUP1 ISZERO PUSH2 0x124 JUMPI PUSH1 0x0 DUP1 REVERT JUMPDEST POP PUSH2 0x12D PUSH2 0x358 JUMP JUMPDEST PUSH1 0x40 MLOAD PUSH2 0x13A SWAP2 SWAP1 PUSH2 0xE9D JUMP JUMPDEST PUSH1 0x40 MLOAD DUP1 SWAP2 SUB SWAP1 RETURN JUMPDEST CALLVALUE DUP1 ISZERO PUSH2 0x14F JUMPI PUSH1 0x0 DUP1 REVERT JUMPDEST POP PUSH2 0x16A PUSH1 0x4 DUP1 CALLDATASIZE SUB DUP2 ADD SWAP1 PUSH2 0x165 SWAP2 SWAP1 PUSH2 0xEE9 JUMP JUMPDEST PUSH2 0x35E JUMP JUMPDEST PUSH1 0x40 MLOAD PUSH2 0x179 SWAP4 SWAP3 SWAP2 SWAP1 PUSH2 0xF57 JUMP JUMPDEST PUSH1 0x40 MLOAD DUP1 SWAP2 SUB SWAP1 RETURN JUMPDEST CALLVALUE DUP1 ISZERO PUSH2 0x18E JUMPI PUSH1 0x0 DUP1 REVERT JUMPDEST POP PUSH2 0x197 PUSH2 0x3A8 JUMP JUMPDEST PUSH1 0x40 MLOAD PUSH2 0x1A4 SWAP2 SWAP1 PUSH2 0xE9D JUMP JUMPDEST PUSH1 0x40 MLOAD DUP1 SWAP2 SUB SWAP1 RETURN JUMPDEST CALLVALUE DUP1 ISZERO PUSH2 0x1B9 JUMPI PUSH1 0x0 DUP1 REVERT JUMPDEST POP PUSH2 0x1D4 PUSH1 0x4 DUP1 CALLDATASIZE SUB DUP2 ADD SWAP1 PUSH2 0x1CF SWAP2 SWAP1 PUSH2 0xFCC JUMP JUMPDEST PUSH2 0x3AE JUMP JUMPDEST STOP JUMPDEST CALLVALUE DUP1 ISZERO PUSH2 0x1E2 JUMPI PUSH1 0x0 DUP1 REVERT JUMPDEST POP PUSH2 0x1FD PUSH1 0x4 DUP1 CALLDATASIZE SUB DUP2 ADD SWAP1 PUSH2 0x1F8 SWAP2 SWAP1 PUSH2 0x1038 JUMP JUMPDEST PUSH2 0x59C JUMP JUMPDEST STOP JUMPDEST CALLVALUE DUP1 ISZERO PUSH2 0x20B JUMPI PUSH1 0x0 DUP1 REVERT JUMPDEST POP PUSH2 0x214 PUSH2 0x7B8 JUMP JUMPDEST PUSH1 0x40 MLOAD PUSH2 0x221 SWAP2 SWAP1 PUSH2 0x1080 JUMP JUMPDEST PUSH1 0x40 MLOAD DUP1 SWAP2 SUB SWAP1 RETURN JUMPDEST CALLVALUE DUP1 ISZERO PUSH2 0x236 JUMPI PUSH1 0x0 DUP1 REVERT JUMPDEST POP PUSH2 0x23F PUSH2 0x7CB JUMP JUMPDEST PUSH1 0x40 MLOAD PUSH2 0x24C SWAP2 SWAP1 PUSH2 0xE9D JUMP JUMPDEST PUSH1 0x40 MLOAD DUP1 SWAP2 SUB SWAP1 RETURN JUMPDEST CALLVALUE DUP1 ISZERO PUSH2 0x261 JUMPI PUSH1 0x0 DUP1 REVERT JUMPDEST POP PUSH2 0x26A PUSH2 0x7D1 JUMP JUMPDEST PUSH1 0x40 MLOAD PUSH2 0x277 SWAP2 SWAP1 PUSH2 0x10AA JUMP JUMPDEST PUSH1 0x40 MLOAD DUP1 SWAP2 SUB SWAP1 RETURN JUMPDEST CALLVALUE DUP1 ISZERO PUSH2 0x28C JUMPI PUSH1 0x0 DUP1 REVERT JUMPDEST POP PUSH2 0x295 PUSH2 0x7F7 JUMP JUMPDEST PUSH1 0x40 MLOAD PUSH2 0x2A2 SWAP2 SWAP1 PUSH2 0x10AA JUMP JUMPDEST PUSH1 0x40 MLOAD DUP1 SWAP2 SUB SWAP1 RETURN JUMPDEST CALLVALUE DUP1 ISZERO PUSH2 0x2B7 JUMPI PUSH1 0x0 DUP1 REVERT JUMPDEST POP PUSH2 0x2C0 PUSH2 0x81D JUMP JUMPDEST PUSH1 0x40 MLOAD PUSH2 0x2CD SWAP2 SWAP1 PUSH2 0xE9D JUMP JUMPDEST PUSH1 0x40 MLOAD DUP1 SWAP2 SUB SWAP1 RETURN JUMPDEST CALLVALUE DUP1 ISZERO PUSH2 0x2E2 JUMPI PUSH1 0x0 DUP1 REVERT JUMPDEST POP PUSH2 0x2EB PUSH2 0x823 JUMP JUMPDEST STOP JUMPDEST PUSH2 0x2F5 PUSH2 0x9EE JUMP JUMPDEST STOP JUMPDEST CALLVALUE DUP1 ISZERO PUSH2 0x303 JUMPI PUSH1 0x0 DUP1 REVERT JUMPDEST POP PUSH2 0x31E PUSH1 0x4 DUP1 CALLDATASIZE SUB DUP2 ADD SWAP1 PUSH2 0x319 SWAP2 SWAP1 PUSH2 0xEE9 JUMP JUMPDEST PUSH2 0xCA7 JUMP JUMPDEST PUSH1 0x40 MLOAD PUSH2 0x32D SWAP4 SWAP3 SWAP2 SWAP1 PUSH2 0x10C5 JUMP JUMPDEST PUSH1 0x40 MLOAD DUP1 SWAP2 SUB SWAP1 RETURN JUMPDEST PUSH2 0x350 PUSH1 0x4 DUP1 CALLDATASIZE SUB DUP2 ADD SWAP1 PUSH2 0x34B SWAP2 SWAP1 PUSH2 0xEE9 JUMP JUMPDEST PUSH2 0xCF1 JUMP JUMPDEST STOP JUMPDEST PUSH1 0x9 SLOAD DUP2 JUMP JUMPDEST PUSH1 0x5 SLOAD DUP2 JUMP JUMPDEST PUSH1 0x1 PUSH1 0x20 MSTORE DUP1 PUSH1 0x0 MSTORE PUSH1 0x40 PUSH1 0x0 KECCAK256 PUSH1 0x0 SWAP2 POP SWAP1 POP DUP1 PUSH1 0x0 ADD SLOAD SWAP1 DUP1 PUSH1 0x1 ADD PUSH1 0x0 SWAP1 SLOAD SWAP1 PUSH2 0x100 EXP SWAP1 DIV PUSH20 0xFFFFFFFFFFFFFFFFFFFFFFFFFFFFFFFFFFFFFFFF AND SWAP1 DUP1 PUSH1 0x2 ADD SLOAD SWAP1 POP DUP4 JUMP JUMPDEST PUSH1 0x4 SLOAD DUP2 JUMP JUMPDEST PUSH20 0x5B38DA6A701C568545DCFCB03FCB875F56BEDDC4 PUSH1 0x2 PUSH1 0x0 PUSH2 0x100 EXP DUP2 SLOAD DUP2 PUSH20 0xFFFFFFFFFFFFFFFFFFFFFFFFFFFFFFFFFFFFFFFF MUL NOT AND SWAP1 DUP4 PUSH20 0xFFFFFFFFFFFFFFFFFFFFFFFFFFFFFFFFFFFFFFFF AND MUL OR SWAP1 SSTORE POP PUSH1 0x2 PUSH1 0x0 SWAP1 SLOAD SWAP1 PUSH2 0x100 EXP SWAP1 DIV PUSH20 0xFFFFFFFFFFFFFFFFFFFFFFFFFFFFFFFFFFFFFFFF AND PUSH20 0xFFFFFFFFFFFFFFFFFFFFFFFFFFFFFFFFFFFFFFFF AND CALLER PUSH20 0xFFFFFFFFFFFFFFFFFFFFFFFFFFFFFFFFFFFFFFFF AND EQ PUSH2 0x493 JUMPI PUSH1 0x40 MLOAD PUSH32 0x8C379A000000000000000000000000000000000000000000000000000000000 DUP2 MSTORE PUSH1 0x4 ADD PUSH2 0x48A SWAP1 PUSH2 0x1159 JUMP JUMPDEST PUSH1 0x40 MLOAD DUP1 SWAP2 SUB SWAP1 REVERT JUMPDEST PUSH1 0x40 MLOAD DUP1 PUSH1 0x60 ADD PUSH1 0x40 MSTORE DUP1 PUSH1 0x3 SLOAD DUP2 MSTORE PUSH1 0x20 ADD DUP4 PUSH20 0xFFFFFFFFFFFFFFFFFFFFFFFFFFFFFFFFFFFFFFFF AND DUP2 MSTORE PUSH1 0x20 ADD DUP3 DUP2 MSTORE POP PUSH1 0x0 DUP1 PUSH1 0x3 SLOAD DUP2 MSTORE PUSH1 0x20 ADD SWAP1 DUP2 MSTORE PUSH1 0x20 ADD PUSH1 0x0 KECCAK256 PUSH1 0x0 DUP3 ADD MLOAD DUP2 PUSH1 0x0 ADD SSTORE PUSH1 0x20 DUP3 ADD MLOAD DUP2 PUSH1 0x1 ADD PUSH1 0x0 PUSH2 0x100 EXP DUP2 SLOAD DUP2 PUSH20 0xFFFFFFFFFFFFFFFFFFFFFFFFFFFFFFFFFFFFFFFF MUL NOT AND SWAP1 DUP4 PUSH20 0xFFFFFFFFFFFFFFFFFFFFFFFFFFFFFFFFFFFFFFFF AND MUL OR SWAP1 SSTORE POP PUSH1 0x40 DUP3 ADD MLOAD DUP2 PUSH1 0x2 ADD SSTORE SWAP1 POP POP PUSH1 0x3 PUSH1 0x0 DUP2 SLOAD DUP1 SWAP3 SWAP2 SWAP1 PUSH2 0x54B SWAP1 PUSH2 0x11A8 JUMP JUMPDEST SWAP2 SWAP1 POP SSTORE POP PUSH1 0x1 PUSH1 0x3 SLOAD PUSH2 0x55F SWAP2 SWAP1 PUSH2 0x11F1 JUMP JUMPDEST PUSH32 0xBC4DB09EEF04F7F97B1B305FA92E7B6423294289CF105E65F577DC29ABA84A88 DUP4 DUP4 PUSH1 0x40 MLOAD PUSH2 0x590 SWAP3 SWAP2 SWAP1 PUSH2 0x1284 JUMP JUMPDEST PUSH1 0x40 MLOAD DUP1 SWAP2 SUB SWAP1 LOG2 POP POP JUMP JUMPDEST PUSH20 0x5B38DA6A701C568545DCFCB03FCB875F56BEDDC4 PUSH1 0x2 PUSH1 0x0 PUSH2 0x100 EXP DUP2 SLOAD DUP2 PUSH20 0xFFFFFFFFFFFFFFFFFFFFFFFFFFFFFFFFFFFFFFFF MUL NOT AND SWAP1 DUP4 PUSH20 0xFFFFFFFFFFFFFFFFFFFFFFFFFFFFFFFFFFFFFFFF AND MUL OR SWAP1 SSTORE POP PUSH1 0x2 PUSH1 0x0 SWAP1 SLOAD SWAP1 PUSH2 0x100 EXP SWAP1 DIV PUSH20 0xFFFFFFFFFFFFFFFFFFFFFFFFFFFFFFFFFFFFFFFF AND PUSH20 0xFFFFFFFFFFFFFFFFFFFFFFFFFFFFFFFFFFFFFFFF AND CALLER PUSH20 0xFFFFFFFFFFFFFFFFFFFFFFFFFFFFFFFFFFFFFFFF AND EQ PUSH2 0x681 JUMPI PUSH1 0x40 MLOAD PUSH32 0x8C379A000000000000000000000000000000000000000000000000000000000 DUP2 MSTORE PUSH1 0x4 ADD PUSH2 0x678 SWAP1 PUSH2 0x1159 JUMP JUMPDEST PUSH1 0x40 MLOAD DUP1 SWAP2 SUB SWAP1 REVERT JUMPDEST PUSH1 0x0 DUP2 TIMESTAMP PUSH1 0x40 MLOAD PUSH1 0x20 ADD PUSH2 0x696 SWAP3 SWAP2 SWAP1 PUSH2 0x1316 JUMP JUMPDEST PUSH1 0x40 MLOAD PUSH1 0x20 DUP2 DUP4 SUB SUB DUP2 MSTORE SWAP1 PUSH1 0x40 MSTORE DUP1 MLOAD SWAP1 PUSH1 0x20 ADD KECCAK256 SWAP1 POP PUSH1 0x40 MLOAD DUP1 PUSH1 0x60 ADD PUSH1 0x40 MSTORE DUP1 PUSH1 0x4 SLOAD DUP2 MSTORE PUSH1 0x20 ADD DUP4 PUSH20 0xFFFFFFFFFFFFFFFFFFFFFFFFFFFFFFFFFFFFFFFF AND DUP2 MSTORE PUSH1 0x20 ADD DUP3 DUP2 MSTORE POP PUSH1 0x1 PUSH1 0x0 PUSH1 0x4 SLOAD DUP2 MSTORE PUSH1 0x20 ADD SWAP1 DUP2 MSTORE PUSH1 0x20 ADD PUSH1 0x0 KECCAK256 PUSH1 0x0 DUP3 ADD MLOAD DUP2 PUSH1 0x0 ADD SSTORE PUSH1 0x20 DUP3 ADD MLOAD DUP2 PUSH1 0x1 ADD PUSH1 0x0 PUSH2 0x100 EXP DUP2 SLOAD DUP2 PUSH20 0xFFFFFFFFFFFFFFFFFFFFFFFFFFFFFFFFFFFFFFFF MUL NOT AND SWAP1 DUP4 PUSH20 0xFFFFFFFFFFFFFFFFFFFFFFFFFFFFFFFFFFFFFFFF AND MUL OR SWAP1 SSTORE POP PUSH1 0x40 DUP3 ADD MLOAD DUP2 PUSH1 0x2 ADD SSTORE SWAP1 POP POP PUSH1 0x4 PUSH1 0x0 DUP2 SLOAD DUP1 SWAP3 SWAP2 SWAP1 PUSH2 0x767 SWAP1 PUSH2 0x11A8 JUMP JUMPDEST SWAP2 SWAP1 POP SSTORE POP PUSH1 0x1 PUSH1 0x4 SLOAD PUSH2 0x77B SWAP2 SWAP1 PUSH2 0x11F1 JUMP JUMPDEST PUSH32 0x3645FBAF6B57098C77E6E7D9972CDDFEB12BBE17A0BD8FCCE42EAE9ED2A33FE DUP4 DUP4 PUSH1 0x40 MLOAD PUSH2 0x7AC SWAP3 SWAP2 SWAP1 PUSH2 0x1342 JUMP JUMPDEST PUSH1 0x40 MLOAD DUP1 SWAP2 SUB SWAP1 LOG2 POP POP JUMP JUMPDEST PUSH1 0x8 PUSH1 0x0 SWAP1 SLOAD SWAP1 PUSH2 0x100 EXP SWAP1 DIV PUSH1 0xFF AND DUP2 JUMP JUMPDEST PUSH1 0x3 SLOAD DUP2 JUMP JUMPDEST PUSH1 0x6 PUSH1 0x0 SWAP1 SLOAD SWAP1 PUSH2 0x100 EXP SWAP1 DIV PUSH20 0xFFFFFFFFFFFFFFFFFFFFFFFFFFFFFFFFFFFFFFFF AND DUP2 JUMP JUMPDEST PUSH1 0x8 PUSH1 0x1 SWAP1 SLOAD SWAP1 PUSH2 0x100 EXP SWAP1 DIV PUSH20 0xFFFFFFFFFFFFFFFFFFFFFFFFFFFFFFFFFFFFFFFF AND DUP2 JUMP JUMPDEST PUSH1 0x7 SLOAD DUP2 JUMP JUMPDEST PUSH1 0x6 PUSH1 0x0 SWAP1 SLOAD SWAP1 PUSH2 0x100 EXP SWAP1 DIV PUSH20 0xFFFFFFFFFFFFFFFFFFFFFFFFFFFFFFFFFFFFFFFF AND PUSH20 0xFFFFFFFFFFFFFFFFFFFFFFFFFFFFFFFFFFFFFFFF AND CALLER PUSH20 0xFFFFFFFFFFFFFFFFFFFFFFFFFFFFFFFFFFFFFFFF AND EQ PUSH2 0x8B3 JUMPI PUSH1 0x40 MLOAD PUSH32 0x8C379A000000000000000000000000000000000000000000000000000000000 DUP2 MSTORE PUSH1 0x4 ADD PUSH2 0x8AA SWAP1 PUSH2 0x13DD JUMP JUMPDEST PUSH1 0x40 MLOAD DUP1 SWAP2 SUB SWAP1 REVERT JUMPDEST PUSH1 0x8 PUSH1 0x0 SWAP1 SLOAD SWAP1 PUSH2 0x100 EXP SWAP1 DIV PUSH1 0xFF AND ISZERO PUSH2 0x903 JUMPI PUSH1 0x40 MLOAD PUSH32 0x8C379A000000000000000000000000000000000000000000000000000000000 DUP2 MSTORE PUSH1 0x4 ADD PUSH2 0x8FA SWAP1 PUSH2 0x146F JUMP JUMPDEST PUSH1 0x40 MLOAD DUP1 SWAP2 SUB SWAP1 REVERT JUMPDEST PUSH1 0x6 PUSH1 0x0 SWAP1 SLOAD SWAP1 PUSH2 0x100 EXP SWAP1 DIV PUSH20 0xFFFFFFFFFFFFFFFFFFFFFFFFFFFFFFFFFFFFFFFF AND PUSH20 0xFFFFFFFFFFFFFFFFFFFFFFFFFFFFFFFFFFFFFFFF AND PUSH2 0x8FC SELFBALANCE SWAP1 DUP2 ISZERO MUL SWAP1 PUSH1 0x40 MLOAD PUSH1 0x0 PUSH1 0x40 MLOAD DUP1 DUP4 SUB DUP2 DUP6 DUP9 DUP9 CALL SWAP4 POP POP POP POP ISZERO DUP1 ISZERO PUSH2 0x96B JUMPI RETURNDATASIZE PUSH1 0x0 DUP1 RETURNDATACOPY RETURNDATASIZE PUSH1 0x0 REVERT JUMPDEST POP PUSH1 0x1 PUSH1 0x8 PUSH1 0x0 PUSH2 0x100 EXP DUP2 SLOAD DUP2 PUSH1 0xFF MUL NOT AND SWAP1 DUP4 ISZERO ISZERO MUL OR SWAP1 SSTORE POP PUSH1 0x6 PUSH1 0x0 SWAP1 SLOAD SWAP1 PUSH2 0x100 EXP SWAP1 DIV PUSH20 0xFFFFFFFFFFFFFFFFFFFFFFFFFFFFFFFFFFFFFFFF AND PUSH20 0xFFFFFFFFFFFFFFFFFFFFFFFFFFFFFFFFFFFFFFFF AND PUSH32 0x58C450E79E079445CB4236AE6F118053D819A6D6477D4B4E91B3552A8EF00FC8 PUSH1 0x40 MLOAD PUSH1 0x40 MLOAD DUP1 SWAP2 SUB SWAP1 LOG2 JUMP JUMPDEST PUSH1 0x6 PUSH1 0x0 SWAP1 SLOAD SWAP1 PUSH2 0x100 EXP SWAP1 DIV PUSH20 0xFFFFFFFFFFFFFFFFFFFFFFFFFFFFFFFFFFFFFFFF AND PUSH20 0xFFFFFFFFFFFFFFFFFFFFFFFFFFFFFFFFFFFFFFFF AND CALLER PUSH20 0xFFFFFFFFFFFFFFFFFFFFFFFFFFFFFFFFFFFFFFFF AND EQ PUSH2 0xA7E JUMPI PUSH1 0x40 MLOAD PUSH32 0x8C379A000000000000000000000000000000000000000000000000000000000 DUP2 MSTORE PUSH1 0x4 ADD PUSH2 0xA75 SWAP1 PUSH2 0x1501 JUMP JUMPDEST PUSH1 0x40 MLOAD DUP1 SWAP2 SUB SWAP1 REVERT JUMPDEST PUSH1 0x0 PUSH1 0x7 SLOAD GT PUSH2 0xAC3 JUMPI PUSH1 0x40 MLOAD PUSH32 0x8C379A000000000000000000000000000000000000000000000000000000000 DUP2 MSTORE PUSH1 0x4 ADD PUSH2 0xABA SWAP1 PUSH2 0x156D JUMP JUMPDEST PUSH1 0x40 MLOAD DUP1 SWAP2 SUB SWAP1 REVERT JUMPDEST PUSH1 0x7 SLOAD CALLVALUE LT ISZERO PUSH2 0xB08 JUMPI PUSH1 0x40 MLOAD PUSH32 0x8C379A000000000000000000000000000000000000000000000000000000000 DUP2 MSTORE PUSH1 0x4 ADD PUSH2 0xAFF SWAP1 PUSH2 0x15D9 JUMP JUMPDEST PUSH1 0x40 MLOAD DUP1 SWAP2 SUB SWAP1 REVERT JUMPDEST PUSH1 0x0 PUSH1 0x64 CALLVALUE PUSH2 0xB17 SWAP2 SWAP1 PUSH2 0x1628 JUMP JUMPDEST SWAP1 POP PUSH1 0x0 DUP1 PUSH1 0x1 PUSH1 0x3 SLOAD PUSH2 0xB2B SWAP2 SWAP1 PUSH2 0x11F1 JUMP JUMPDEST DUP2 MSTORE PUSH1 0x20 ADD SWAP1 DUP2 MSTORE PUSH1 0x20 ADD PUSH1 0x0 KECCAK256 PUSH1 0x1 ADD PUSH1 0x0 SWAP1 SLOAD SWAP1 PUSH2 0x100 EXP SWAP1 DIV PUSH20 0xFFFFFFFFFFFFFFFFFFFFFFFFFFFFFFFFFFFFFFFF AND PUSH20 0xFFFFFFFFFFFFFFFFFFFFFFFFFFFFFFFFFFFFFFFF AND PUSH2 0x8FC DUP3 CALLVALUE PUSH2 0xB82 SWAP2 SWAP1 PUSH2 0x11F1 JUMP JUMPDEST SWAP1 DUP2 ISZERO MUL SWAP1 PUSH1 0x40 MLOAD PUSH1 0x0 PUSH1 0x40 MLOAD DUP1 DUP4 SUB DUP2 DUP6 DUP9 DUP9 CALL SWAP4 POP POP POP POP ISZERO DUP1 ISZERO PUSH2 0xBAD JUMPI RETURNDATASIZE PUSH1 0x0 DUP1 RETURNDATACOPY RETURNDATASIZE PUSH1 0x0 REVERT JUMPDEST POP PUSH1 0x8 PUSH1 0x1 SWAP1 SLOAD SWAP1 PUSH2 0x100 EXP SWAP1 DIV PUSH20 0xFFFFFFFFFFFFFFFFFFFFFFFFFFFFFFFFFFFFFFFF AND PUSH20 0xFFFFFFFFFFFFFFFFFFFFFFFFFFFFFFFFFFFFFFFF AND PUSH2 0x8FC DUP3 SWAP1 DUP2 ISZERO MUL SWAP1 PUSH1 0x40 MLOAD PUSH1 0x0 PUSH1 0x40 MLOAD DUP1 DUP4 SUB DUP2 DUP6 DUP9 DUP9 CALL SWAP4 POP POP POP POP ISZERO DUP1 ISZERO PUSH2 0xC16 JUMPI RETURNDATASIZE PUSH1 0x0 DUP1 RETURNDATACOPY RETURNDATASIZE PUSH1 0x0 REVERT JUMPDEST POP PUSH1 0x1 PUSH1 0x8 PUSH1 0x0 PUSH2 0x100 EXP DUP2 SLOAD DUP2 PUSH1 0xFF MUL NOT AND SWAP1 DUP4 ISZERO ISZERO MUL OR SWAP1 SSTORE POP PUSH1 0x6 PUSH1 0x0 SWAP1 SLOAD SWAP1 PUSH2 0x100 EXP SWAP1 DIV PUSH20 0xFFFFFFFFFFFFFFFFFFFFFFFFFFFFFFFFFFFFFFFF AND PUSH20 0xFFFFFFFFFFFFFFFFFFFFFFFFFFFFFFFFFFFFFFFF AND PUSH32 0x18F9D2C9031A53CA9E501DDAADC6E66758B39BBF424CF4E22C62B6003FBD240C PUSH1 0x7 SLOAD PUSH1 0x40 MLOAD PUSH2 0xC9C SWAP2 SWAP1 PUSH2 0xE9D JUMP JUMPDEST PUSH1 0x40 MLOAD DUP1 SWAP2 SUB SWAP1 LOG2 POP JUMP JUMPDEST PUSH1 0x0 PUSH1 0x20 MSTORE DUP1 PUSH1 0x0 MSTORE PUSH1 0x40 PUSH1 0x0 KECCAK256 PUSH1 0x0 SWAP2 POP SWAP1 POP DUP1 PUSH1 0x0 ADD SLOAD SWAP1 DUP1 PUSH1 0x1 ADD PUSH1 0x0 SWAP1 SLOAD SWAP1 PUSH2 0x100 EXP SWAP1 DIV PUSH20 0xFFFFFFFFFFFFFFFFFFFFFFFFFFFFFFFFFFFFFFFF AND SWAP1 DUP1 PUSH1 0x2 ADD SLOAD SWAP1 POP DUP4 JUMP JUMPDEST PUSH1 0x6 PUSH1 0x0 SWAP1 SLOAD SWAP1 PUSH2 0x100 EXP SWAP1 DIV PUSH20 0xFFFFFFFFFFFFFFFFFFFFFFFFFFFFFFFFFFFFFFFF AND PUSH20 0xFFFFFFFFFFFFFFFFFFFFFFFFFFFFFFFFFFFFFFFF AND CALLER PUSH20 0xFFFFFFFFFFFFFFFFFFFFFFFFFFFFFFFFFFFFFFFF AND EQ PUSH2 0xD81 JUMPI PUSH1 0x40 MLOAD PUSH32 0x8C379A000000000000000000000000000000000000000000000000000000000 DUP2 MSTORE PUSH1 0x4 ADD PUSH2 0xD78 SWAP1 PUSH2 0x16CB JUMP JUMPDEST PUSH1 0x40 MLOAD DUP1 SWAP2 SUB SWAP1 REVERT JUMPDEST PUSH1 0x3 SLOAD DUP2 LT PUSH2 0xDC5 JUMPI PUSH1 0x40 MLOAD PUSH32 0x8C379A000000000000000000000000000000000000000000000000000000000 DUP2 MSTORE PUSH1 0x4 ADD PUSH2 0xDBC SWAP1 PUSH2 0x1737 JUMP JUMPDEST PUSH1 0x40 MLOAD DUP1 SWAP2 SUB SWAP1 REVERT JUMPDEST PUSH1 0x0 DUP1 PUSH1 0x0 DUP4 DUP2 MSTORE PUSH1 0x20 ADD SWAP1 DUP2 MSTORE PUSH1 0x20 ADD PUSH1 0x0 KECCAK256 SWAP1 POP DUP1 PUSH1 0x2 ADD SLOAD PUSH1 0x7 DUP2 SWAP1 SSTORE POP DUP1 PUSH1 0x0 ADD SLOAD PUSH32 0x2AB28FD10F2B43850869F000CE2A725D2F9E8FE2876367EF32F0AB9FCC7B58C2 DUP3 PUSH1 0x1 ADD PUSH1 0x0 SWAP1 SLOAD SWAP1 PUSH2 0x100 EXP SWAP1 DIV PUSH20 0xFFFFFFFFFFFFFFFFFFFFFFFFFFFFFFFFFFFFFFFF AND DUP4 PUSH1 0x2 ADD SLOAD PUSH1 0x40 MLOAD PUSH2 0xE44 SWAP3 SWAP2 SWAP1 PUSH2 0x1284 JUMP JUMPDEST PUSH1 0x40 MLOAD DUP1 SWAP2 SUB SWAP1 LOG2 POP POP JUMP JUMPDEST PUSH1 0x0 DUP2 SWAP1 POP SWAP2 SWAP1 POP JUMP JUMPDEST PUSH2 0xE63 DUP2 PUSH2 0xE50 JUMP JUMPDEST DUP3 MSTORE POP POP JUMP JUMPDEST PUSH1 0x0 PUSH1 0x20 DUP3 ADD SWAP1 POP PUSH2 0xE7E PUSH1 0x0 DUP4 ADD DUP5 PUSH2 0xE5A JUMP JUMPDEST SWAP3 SWAP2 POP POP JUMP JUMPDEST PUSH1 0x0 DUP2 SWAP1 POP SWAP2 SWAP1 POP JUMP JUMPDEST PUSH2 0xE97 DUP2 PUSH2 0xE84 JUMP JUMPDEST DUP3 MSTORE POP POP JUMP JUMPDEST PUSH1 0x0 PUSH1 0x20 DUP3 ADD SWAP1 POP PUSH2 0xEB2 PUSH1 0x0 DUP4 ADD DUP5 PUSH2 0xE8E JUMP JUMPDEST SWAP3 SWAP2 POP POP JUMP JUMPDEST PUSH1 0x0 DUP1 REVERT JUMPDEST PUSH2 0xEC6 DUP2 PUSH2 0xE84 JUMP JUMPDEST DUP2 EQ PUSH2 0xED1 JUMPI PUSH1 0x0 DUP1 REVERT JUMPDEST POP JUMP JUMPDEST PUSH1 0x0 DUP2 CALLDATALOAD SWAP1 POP PUSH2 0xEE3 DUP2 PUSH2 0xEBD JUMP JUMPDEST SWAP3 SWAP2 POP POP JUMP JUMPDEST PUSH1 0x0 PUSH1 0x20 DUP3 DUP5 SUB SLT ISZERO PUSH2 0xEFF JUMPI PUSH2 0xEFE PUSH2 0xEB8 JUMP JUMPDEST JUMPDEST PUSH1 0x0 PUSH2 0xF0D DUP5 DUP3 DUP6 ADD PUSH2 0xED4 JUMP JUMPDEST SWAP2 POP POP SWAP3 SWAP2 POP POP JUMP JUMPDEST PUSH1 0x0 PUSH20 0xFFFFFFFFFFFFFFFFFFFFFFFFFFFFFFFFFFFFFFFF DUP3 AND SWAP1 POP SWAP2 SWAP1 POP JUMP JUMPDEST PUSH1 0x0 PUSH2 0xF41 DUP3 PUSH2 0xF16 JUMP JUMPDEST SWAP1 POP SWAP2 SWAP1 POP JUMP JUMPDEST PUSH2 0xF51 DUP2 PUSH2 0xF36 JUMP JUMPDEST DUP3 MSTORE POP POP JUMP JUMPDEST PUSH1 0x0 PUSH1 0x60 DUP3 ADD SWAP1 POP PUSH2 0xF6C PUSH1 0x0 DUP4 ADD DUP7 PUSH2 0xE8E JUMP JUMPDEST PUSH2 0xF79 PUSH1 0x20 DUP4 ADD DUP6 PUSH2 0xF48 JUMP JUMPDEST PUSH2 0xF86 PUSH1 0x40 DUP4 ADD DUP5 PUSH2 0xE5A JUMP JUMPDEST SWAP5 SWAP4 POP POP POP POP JUMP JUMPDEST PUSH1 0x0 PUSH2 0xF99 DUP3 PUSH2 0xF16 JUMP JUMPDEST SWAP1 POP SWAP2 SWAP1 POP JUMP JUMPDEST PUSH2 0xFA9 DUP2 PUSH2 0xF8E JUMP JUMPDEST DUP2 EQ PUSH2 0xFB4 JUMPI PUSH1 0x0 DUP1 REVERT JUMPDEST POP JUMP JUMPDEST PUSH1 0x0 DUP2 CALLDATALOAD SWAP1 POP PUSH2 0xFC6 DUP2 PUSH2 0xFA0 JUMP JUMPDEST SWAP3 SWAP2 POP POP JUMP JUMPDEST PUSH1 0x0 DUP1 PUSH1 0x40 DUP4 DUP6 SUB SLT ISZERO PUSH2 0xFE3 JUMPI PUSH2 0xFE2 PUSH2 0xEB8 JUMP JUMPDEST JUMPDEST PUSH1 0x0 PUSH2 0xFF1 DUP6 DUP3 DUP7 ADD PUSH2 0xFB7 JUMP JUMPDEST SWAP3 POP POP PUSH1 0x20 PUSH2 0x1002 DUP6 DUP3 DUP7 ADD PUSH2 0xED4 JUMP JUMPDEST SWAP2 POP POP SWAP3 POP SWAP3 SWAP1 POP JUMP JUMPDEST PUSH2 0x1015 DUP2 PUSH2 0xF36 JUMP JUMPDEST DUP2 EQ PUSH2 0x1020 JUMPI PUSH1 0x0 DUP1 REVERT JUMPDEST POP JUMP JUMPDEST PUSH1 0x0 DUP2 CALLDATALOAD SWAP1 POP PUSH2 0x1032 DUP2 PUSH2 0x100C JUMP JUMPDEST SWAP3 SWAP2 POP POP JUMP JUMPDEST PUSH1 0x0 PUSH1 0x20 DUP3 DUP5 SUB SLT ISZERO PUSH2 0x104E JUMPI PUSH2 0x104D PUSH2 0xEB8 JUMP JUMPDEST JUMPDEST PUSH1 0x0 PUSH2 0x105C DUP5 DUP3 DUP6 ADD PUSH2 0x1023 JUMP JUMPDEST SWAP2 POP POP SWAP3 SWAP2 POP POP JUMP JUMPDEST PUSH1 0x0 DUP2 ISZERO ISZERO SWAP1 POP SWAP2 SWAP1 POP JUMP JUMPDEST PUSH2 0x107A DUP2 PUSH2 0x1065 JUMP JUMPDEST DUP3 MSTORE POP POP JUMP JUMPDEST PUSH1 0x0 PUSH1 0x20 DUP3 ADD SWAP1 POP PUSH2 0x1095 PUSH1 0x0 DUP4 ADD DUP5 PUSH2 0x1071 JUMP JUMPDEST SWAP3 SWAP2 POP POP JUMP JUMPDEST PUSH2 0x10A4 DUP2 PUSH2 0xF8E JUMP JUMPDEST DUP3 MSTORE POP POP JUMP JUMPDEST PUSH1 0x0 PUSH1 0x20 DUP3 ADD SWAP1 POP PUSH2 0x10BF PUSH1 0x0 DUP4 ADD DUP5 PUSH2 0x109B JUMP JUMPDEST SWAP3 SWAP2 POP POP JUMP JUMPDEST PUSH1 0x0 PUSH1 0x60 DUP3 ADD SWAP1 POP PUSH2 0x10DA PUSH1 0x0 DUP4 ADD DUP7 PUSH2 0xE8E JUMP JUMPDEST PUSH2 0x10E7 PUSH1 0x20 DUP4 ADD DUP6 PUSH2 0x109B JUMP JUMPDEST PUSH2 0x10F4 PUSH1 0x40 DUP4 ADD DUP5 PUSH2 0xE8E JUMP JUMPDEST SWAP5 SWAP4 POP POP POP POP JUMP JUMPDEST PUSH1 0x0 DUP3 DUP3 MSTORE PUSH1 0x20 DUP3 ADD SWAP1 POP SWAP3 SWAP2 POP POP JUMP JUMPDEST PUSH32 0x4E6F74206F776E65720000000000000000000000000000000000000000000000 PUSH1 0x0 DUP3 ADD MSTORE POP JUMP JUMPDEST PUSH1 0x0 PUSH2 0x1143 PUSH1 0x9 DUP4 PUSH2 0x10FC JUMP JUMPDEST SWAP2 POP PUSH2 0x114E DUP3 PUSH2 0x110D JUMP JUMPDEST PUSH1 0x20 DUP3 ADD SWAP1 POP SWAP2 SWAP1 POP JUMP JUMPDEST PUSH1 0x0 PUSH1 0x20 DUP3 ADD SWAP1 POP DUP2 DUP2 SUB PUSH1 0x0 DUP4 ADD MSTORE PUSH2 0x1172 DUP2 PUSH2 0x1136 JUMP JUMPDEST SWAP1 POP SWAP2 SWAP1 POP JUMP JUMPDEST PUSH32 0x4E487B7100000000000000000000000000000000000000000000000000000000 PUSH1 0x0 MSTORE PUSH1 0x11 PUSH1 0x4 MSTORE PUSH1 0x24 PUSH1 0x0 REVERT JUMPDEST PUSH1 0x0 PUSH2 0x11B3 DUP3 PUSH2 0xE84 JUMP JUMPDEST SWAP2 POP PUSH32 0xFFFFFFFFFFFFFFFFFFFFFFFFFFFFFFFFFFFFFFFFFFFFFFFFFFFFFFFFFFFFFFFF DUP3 EQ ISZERO PUSH2 0x11E6 JUMPI PUSH2 0x11E5 PUSH2 0x1179 JUMP JUMPDEST JUMPDEST PUSH1 0x1 DUP3 ADD SWAP1 POP SWAP2 SWAP1 POP JUMP JUMPDEST PUSH1 0x0 PUSH2 0x11FC DUP3 PUSH2 0xE84 JUMP JUMPDEST SWAP2 POP PUSH2 0x1207 DUP4 PUSH2 0xE84 JUMP JUMPDEST SWAP3 POP DUP3 DUP3 LT ISZERO PUSH2 0x121A JUMPI PUSH2 0x1219 PUSH2 0x1179 JUMP JUMPDEST JUMPDEST DUP3 DUP3 SUB SWAP1 POP SWAP3 SWAP2 POP POP JUMP JUMPDEST PUSH1 0x0 DUP2 SWAP1 POP SWAP2 SWAP1 POP JUMP JUMPDEST PUSH1 0x0 PUSH2 0x124A PUSH2 0x1245 PUSH2 0x1240 DUP5 PUSH2 0xF16 JUMP JUMPDEST PUSH2 0x1225 JUMP JUMPDEST PUSH2 0xF16 JUMP JUMPDEST SWAP1 POP SWAP2 SWAP1 POP JUMP JUMPDEST PUSH1 0x0 PUSH2 0x125C DUP3 PUSH2 0x122F JUMP JUMPDEST SWAP1 POP SWAP2 SWAP1 POP JUMP JUMPDEST PUSH1 0x0 PUSH2 0x126E DUP3 PUSH2 0x1251 JUMP JUMPDEST SWAP1 POP SWAP2 SWAP1 POP JUMP JUMPDEST PUSH2 0x127E DUP2 PUSH2 0x1263 JUMP JUMPDEST DUP3 MSTORE POP POP JUMP JUMPDEST PUSH1 0x0 PUSH1 0x40 DUP3 ADD SWAP1 POP PUSH2 0x1299 PUSH1 0x0 DUP4 ADD DUP6 PUSH2 0x1275 JUMP JUMPDEST PUSH2 0x12A6 PUSH1 0x20 DUP4 ADD DUP5 PUSH2 0xE8E JUMP JUMPDEST SWAP4 SWAP3 POP POP POP JUMP JUMPDEST PUSH1 0x0 DUP2 PUSH1 0x60 SHL SWAP1 POP SWAP2 SWAP1 POP JUMP JUMPDEST PUSH1 0x0 PUSH2 0x12C5 DUP3 PUSH2 0x12AD JUMP JUMPDEST SWAP1 POP SWAP2 SWAP1 POP JUMP JUMPDEST PUSH1 0x0 PUSH2 0x12D7 DUP3 PUSH2 0x12BA JUMP JUMPDEST SWAP1 POP SWAP2 SWAP1 POP JUMP JUMPDEST PUSH2 0x12EF PUSH2 0x12EA DUP3 PUSH2 0xF36 JUMP JUMPDEST PUSH2 0x12CC JUMP JUMPDEST DUP3 MSTORE POP POP JUMP JUMPDEST PUSH1 0x0 DUP2 SWAP1 POP SWAP2 SWAP1 POP JUMP JUMPDEST PUSH2 0x1310 PUSH2 0x130B DUP3 PUSH2 0xE84 JUMP JUMPDEST PUSH2 0x12F5 JUMP JUMPDEST DUP3 MSTORE POP POP JUMP JUMPDEST PUSH1 0x0 PUSH2 0x1322 DUP3 DUP6 PUSH2 0x12DE JUMP JUMPDEST PUSH1 0x14 DUP3 ADD SWAP2 POP PUSH2 0x1332 DUP3 DUP5 PUSH2 0x12FF JUMP JUMPDEST PUSH1 0x20 DUP3 ADD SWAP2 POP DUP2 SWAP1 POP SWAP4 SWAP3 POP POP POP JUMP JUMPDEST PUSH1 0x0 PUSH1 0x40 DUP3 ADD SWAP1 POP PUSH2 0x1357 PUSH1 0x0 DUP4 ADD DUP6 PUSH2 0xF48 JUMP JUMPDEST PUSH2 0x1364 PUSH1 0x20 DUP4 ADD DUP5 PUSH2 0xE5A JUMP JUMPDEST SWAP4 SWAP3 POP POP POP JUMP JUMPDEST PUSH32 0x4F6E6C79207468652070617373656E6765722063616E2063616E63656C207468 PUSH1 0x0 DUP3 ADD MSTORE PUSH32 0x65206F6666657200000000000000000000000000000000000000000000000000 PUSH1 0x20 DUP3 ADD MSTORE POP JUMP JUMPDEST PUSH1 0x0 PUSH2 0x13C7 PUSH1 0x27 DUP4 PUSH2 0x10FC JUMP JUMPDEST SWAP2 POP PUSH2 0x13D2 DUP3 PUSH2 0x136B JUMP JUMPDEST PUSH1 0x40 DUP3 ADD SWAP1 POP SWAP2 SWAP1 POP JUMP JUMPDEST PUSH1 0x0 PUSH1 0x20 DUP3 ADD SWAP1 POP DUP2 DUP2 SUB PUSH1 0x0 DUP4 ADD MSTORE PUSH2 0x13F6 DUP2 PUSH2 0x13BA JUMP JUMPDEST SWAP1 POP SWAP2 SWAP1 POP JUMP JUMPDEST PUSH32 0x546865207472616E73616374696F6E2068617320616C7265616479206265656E PUSH1 0x0 DUP3 ADD MSTORE PUSH32 0x20636F6D706C6574656400000000000000000000000000000000000000000000 PUSH1 0x20 DUP3 ADD MSTORE POP JUMP JUMPDEST PUSH1 0x0 PUSH2 0x1459 PUSH1 0x2A DUP4 PUSH2 0x10FC JUMP JUMPDEST SWAP2 POP PUSH2 0x1464 DUP3 PUSH2 0x13FD JUMP JUMPDEST PUSH1 0x40 DUP3 ADD SWAP1 POP SWAP2 SWAP1 POP JUMP JUMPDEST PUSH1 0x0 PUSH1 0x20 DUP3 ADD SWAP1 POP DUP2 DUP2 SUB PUSH1 0x0 DUP4 ADD MSTORE PUSH2 0x1488 DUP2 PUSH2 0x144C JUMP JUMPDEST SWAP1 POP SWAP2 SWAP1 POP JUMP JUMPDEST PUSH32 0x4F6E6C79207468652070617373656E6765722063616E20616363657074207468 PUSH1 0x0 DUP3 ADD MSTORE PUSH32 0x65206F6666657200000000000000000000000000000000000000000000000000 PUSH1 0x20 DUP3 ADD MSTORE POP JUMP JUMPDEST PUSH1 0x0 PUSH2 0x14EB PUSH1 0x27 DUP4 PUSH2 0x10FC JUMP JUMPDEST SWAP2 POP PUSH2 0x14F6 DUP3 PUSH2 0x148F JUMP JUMPDEST PUSH1 0x40 DUP3 ADD SWAP1 POP SWAP2 SWAP1 POP JUMP JUMPDEST PUSH1 0x0 PUSH1 0x20 DUP3 ADD SWAP1 POP DUP2 DUP2 SUB PUSH1 0x0 DUP4 ADD MSTORE PUSH2 0x151A DUP2 PUSH2 0x14DE JUMP JUMPDEST SWAP1 POP SWAP2 SWAP1 POP JUMP JUMPDEST PUSH32 0x4E6F2064726976657220686173206265656E2063686F73656E00000000000000 PUSH1 0x0 DUP3 ADD MSTORE POP JUMP JUMPDEST PUSH1 0x0 PUSH2 0x1557 PUSH1 0x19 DUP4 PUSH2 0x10FC JUMP JUMPDEST SWAP2 POP PUSH2 0x1562 DUP3 PUSH2 0x1521 JUMP JUMPDEST PUSH1 0x20 DUP3 ADD SWAP1 POP SWAP2 SWAP1 POP JUMP JUMPDEST PUSH1 0x0 PUSH1 0x20 DUP3 ADD SWAP1 POP DUP2 DUP2 SUB PUSH1 0x0 DUP4 ADD MSTORE PUSH2 0x1586 DUP2 PUSH2 0x154A JUMP JUMPDEST SWAP1 POP SWAP2 SWAP1 POP JUMP JUMPDEST PUSH32 0x5468652066617265206F666665726564206973206E6F7420656E6F7567680000 PUSH1 0x0 DUP3 ADD MSTORE POP JUMP JUMPDEST PUSH1 0x0 PUSH2 0x15C3 PUSH1 0x1E DUP4 PUSH2 0x10FC JUMP JUMPDEST SWAP2 POP PUSH2 0x15CE DUP3 PUSH2 0x158D JUMP JUMPDEST PUSH1 0x20 DUP3 ADD SWAP1 POP SWAP2 SWAP1 POP JUMP JUMPDEST PUSH1 0x0 PUSH1 0x20 DUP3 ADD SWAP1 POP DUP2 DUP2 SUB PUSH1 0x0 DUP4 ADD MSTORE PUSH2 0x15F2 DUP2 PUSH2 0x15B6 JUMP JUMPDEST SWAP1 POP SWAP2 SWAP1 POP JUMP JUMPDEST PUSH32 0x4E487B7100000000000000000000000000000000000000000000000000000000 PUSH1 0x0 MSTORE PUSH1 0x12 PUSH1 0x4 MSTORE PUSH1 0x24 PUSH1 0x0 REVERT JUMPDEST PUSH1 0x0 PUSH2 0x1633 DUP3 PUSH2 0xE84 JUMP JUMPDEST SWAP2 POP PUSH2 0x163E DUP4 PUSH2 0xE84 JUMP JUMPDEST SWAP3 POP DUP3 PUSH2 0x164E JUMPI PUSH2 0x164D PUSH2 0x15F9 JUMP JUMPDEST JUMPDEST DUP3 DUP3 DIV SWAP1 POP SWAP3 SWAP2 POP POP JUMP JUMPDEST PUSH32 0x4F6E6C79207468652070617373656E6765722063616E2063686F6F7365206120 PUSH1 0x0 DUP3 ADD MSTORE PUSH32 0x6472697665720000000000000000000000000000000000000000000000000000 PUSH1 0x20 DUP3 ADD MSTORE POP JUMP JUMPDEST PUSH1 0x0 PUSH2 0x16B5 PUSH1 0x26 DUP4 PUSH2 0x10FC JUMP JUMPDEST SWAP2 POP PUSH2 0x16C0 DUP3 PUSH2 0x1659 JUMP JUMPDEST PUSH1 0x40 DUP3 ADD SWAP1 POP SWAP2 SWAP1 POP JUMP JUMPDEST PUSH1 0x0 PUSH1 0x20 DUP3 ADD SWAP1 POP DUP2 DUP2 SUB PUSH1 0x0 DUP4 ADD MSTORE PUSH2 0x16E4 DUP2 PUSH2 0x16A8 JUMP JUMPDEST SWAP1 POP SWAP2 SWAP1 POP JUMP JUMPDEST PUSH32 0x496E76616C696420647269766572204944000000000000000000000000000000 PUSH1 0x0 DUP3 ADD MSTORE POP JUMP JUMPDEST PUSH1 0x0 PUSH2 0x1721 PUSH1 0x11 DUP4 PUSH2 0x10FC JUMP JUMPDEST SWAP2 POP PUSH2 0x172C DUP3 PUSH2 0x16EB JUMP JUMPDEST PUSH1 0x20 DUP3 ADD SWAP1 POP SWAP2 SWAP1 POP JUMP JUMPDEST PUSH1 0x0 PUSH1 0x20 DUP3 ADD SWAP1 POP DUP2 DUP2 SUB PUSH1 0x0 DUP4 ADD MSTORE PUSH2 0x1750 DUP2 PUSH2 0x1714 JUMP JUMPDEST SWAP1 POP SWAP2 SWAP1 POP JUMP INVALID LOG2 PUSH5 0x6970667358 0x22 SLT KECCAK256 0xA5 PUSH7 0x2112A6CDC23980 CALLVALUE 0xAD PUSH29 0x548A1AA7912344458189F77B3AF70A15AE5D109A64736F6C6343000808 STOP CALLER "},"gasEstimates":{"creation":{"codeDepositCost":"1205800","executionCost":"infinite","totalCost":"infinite"},"external":{"_fare()":"2475","acceptOffer()":"infinite","addDriver(address,uint256)":"infinite","cancel()":"infinite","charityAccount()":"2631","chooseDriver(uint256)":"infinite","chosenFare()":"2518","completed()":"2560","driver_Token(uint256)":"infinite","driver_token(address)":"infinite","drivers(uint256)":"infinite","numDrivers()":"2452","passenger()":"2559","passengerToken()":"2453","totaldriver()":"2452"}},"methodIdentifiers":{"_fare()":"301756db","acceptOffer()":"eb62df61","addDriver(address,uint256)":"45ca6745","cancel()":"ea8a1af0","charityAccount()":"c899b826","chooseDriver(uint256)":"f7fc5066","chosenFare()":"e75d5f04","completed()":"9d9a7fe9","driver_Token(uint256)":"42e2fce5","driver_token(address)":"6aaa7db0","drivers(uint256)":"f79e5450","numDrivers()":"baaca96d","passenger()":"c11ae86f","passengerToken()":"03307ffb","totaldriver()":"44073b6f"}},"storageLayout":{"storage":[{"astId":67,"contract":"contracts/rideshare.sol:uber","label":"drivers","offset":0,"slot":"0","type":"t_mapping(t_uint256,t_struct(Driver)55_storage)"},{"astId":72,"contract":"contracts/rideshare.sol:uber","label":"driver_Token","offset":0,"slot":"1","type":"t_mapping(t_uint256,t_struct(Alldriver)62_storage)"},{"astId":74,"contract":"contracts/rideshare.sol:uber","label":"owner","offset":0,"slot":"2","type":"t_address"},{"astId":132,"contract":"contracts/rideshare.sol:uber","label":"numDrivers","offset":0,"slot":"3","type":"t_uint256"},{"astId":134,"contract":"contracts/rideshare.sol:uber","label":"totaldriver","offset":0,"slot":"4","type":"t_uint256"},{"astId":136,"contract":"contracts/rideshare.sol:uber","label":"_fare","offset":0,"slot":"5","type":"t_uint256"},{"astId":138,"contract":"contracts/rideshare.sol:uber","label":"passenger","offset":0,"slot":"6","type":"t_address_payable"},{"astId":140,"contract":"contracts/rideshare.sol:uber","label":"chosenFare","offset":0,"slot":"7","type":"t_uint256"},{"astId":142,"contract":"contracts/rideshare.sol:uber","label":"completed","offset":0,"slot":"8","type":"t_bool"},{"astId":144,"contract":"contracts/rideshare.sol:uber","label":"charityAccount","offset":1,"slot":"8","type":"t_address_payable"},{"astId":146,"contract":"contracts/rideshare.sol:uber","label":"passengerToken","offset":0,"slot":"9","type":"t_bytes32"}],"types":{"t_address":{"encoding":"inplace","label":"address","numberOfBytes":"20"},"t_address_payable":{"encoding":"inplace","label":"address payable","numberOfBytes":"20"},"t_bool":{"encoding":"inplace","label":"bool","numberOfBytes":"1"},"t_bytes32":{"encoding":"inplace","label":"bytes32","numberOfBytes":"32"},"t_mapping(t_uint256,t_struct(Alldriver)62_storage)":{"encoding":"mapping","key":"t_uint256","label":"mapping(uint256 => struct uber.Alldriver)","numberOfBytes":"32","value":"t_struct(Alldriver)62_storage"},"t_mapping(t_uint256,t_struct(Driver)55_storage)":{"encoding":"mapping","key":"t_uint256","label":"mapping(uint256 => struct uber.Driver)","numberOfBytes":"32","value":"t_struct(Driver)55_storage"},"t_struct(Alldriver)62_storage":{"encoding":"inplace","label":"struct uber.Alldriver","members":[{"astId":57,"contract":"contracts/rideshare.sol:uber","label":"Totaldriver","offset":0,"slot":"0","type":"t_uint256"},{"astId":59,"contract":"contracts/rideshare.sol:uber","label":"addr","offset":0,"slot":"1","type":"t_address"},{"astId":61,"contract":"contracts/rideshare.sol:uber","label":"token","offset":0,"slot":"2","type":"t_bytes32"}],"numberOfBytes":"96"},"t_struct(Driver)55_storage":{"encoding":"inplace","label":"struct uber.Driver","members":[{"astId":50,"contract":"contracts/rideshare.sol:uber","label":"id","offset":0,"slot":"0","type":"t_uint256"},{"astId":52,"contract":"contracts/rideshare.sol:uber","label":"addr","offset":0,"slot":"1","type":"t_address_payable"},{"astId":54,"contract":"contracts/rideshare.sol:uber","label":"fare","offset":0,"slot":"2","type":"t_uint256"}],"numberOfBytes":"96"},"t_uint256":{"encoding":"inplace","label":"uint256","numberOfBytes":"32"}}},"userdoc":{"kind":"user","methods":{},"version":1}}}}